{
  "contractName": "CrssToken",
  "abi": [
    {
      "inputs": [
        {
          "internalType": "address",
          "name": "_devTo",
          "type": "address"
        },
        {
          "internalType": "address",
          "name": "_buybackTo",
          "type": "address"
        },
        {
          "internalType": "contract IBEP20",
          "name": "_oldCrss",
          "type": "address"
        }
      ],
      "stateMutability": "nonpayable",
      "type": "constructor"
    },
    {
      "anonymous": false,
      "inputs": [
        {
          "indexed": true,
          "internalType": "address",
          "name": "owner",
          "type": "address"
        },
        {
          "indexed": true,
          "internalType": "address",
          "name": "spender",
          "type": "address"
        },
        {
          "indexed": false,
          "internalType": "uint256",
          "name": "value",
          "type": "uint256"
        }
      ],
      "name": "Approval",
      "type": "event"
    },
    {
      "anonymous": false,
      "inputs": [
        {
          "indexed": true,
          "internalType": "address",
          "name": "delegator",
          "type": "address"
        },
        {
          "indexed": true,
          "internalType": "address",
          "name": "fromDelegate",
          "type": "address"
        },
        {
          "indexed": true,
          "internalType": "address",
          "name": "toDelegate",
          "type": "address"
        }
      ],
      "name": "DelegateChanged",
      "type": "event"
    },
    {
      "anonymous": false,
      "inputs": [
        {
          "indexed": true,
          "internalType": "address",
          "name": "delegate",
          "type": "address"
        },
        {
          "indexed": false,
          "internalType": "uint256",
          "name": "previousBalance",
          "type": "uint256"
        },
        {
          "indexed": false,
          "internalType": "uint256",
          "name": "newBalance",
          "type": "uint256"
        }
      ],
      "name": "DelegateVotesChanged",
      "type": "event"
    },
    {
      "anonymous": false,
      "inputs": [
        {
          "indexed": true,
          "internalType": "address",
          "name": "router",
          "type": "address"
        }
      ],
      "name": "Init_router",
      "type": "event"
    },
    {
      "anonymous": false,
      "inputs": [
        {
          "indexed": false,
          "internalType": "uint256",
          "name": "minTokensBeforeSwap",
          "type": "uint256"
        }
      ],
      "name": "MinTokensBeforeSwapUpdated",
      "type": "event"
    },
    {
      "anonymous": false,
      "inputs": [
        {
          "indexed": true,
          "internalType": "address",
          "name": "previousOwner",
          "type": "address"
        },
        {
          "indexed": true,
          "internalType": "address",
          "name": "newOwner",
          "type": "address"
        }
      ],
      "name": "OwnershipTransferred",
      "type": "event"
    },
    {
      "anonymous": false,
      "inputs": [
        {
          "indexed": false,
          "internalType": "uint256",
          "name": "maxTransferAmountRate",
          "type": "uint256"
        }
      ],
      "name": "SetMaxTransferAmountRate",
      "type": "event"
    },
    {
      "anonymous": false,
      "inputs": [
        {
          "indexed": true,
          "internalType": "address",
          "name": "addr",
          "type": "address"
        },
        {
          "indexed": false,
          "internalType": "bool",
          "name": "status",
          "type": "bool"
        }
      ],
      "name": "SetWhiteList",
      "type": "event"
    },
    {
      "anonymous": false,
      "inputs": [
        {
          "indexed": false,
          "internalType": "uint256",
          "name": "tokensSwapped",
          "type": "uint256"
        },
        {
          "indexed": false,
          "internalType": "uint256",
          "name": "ethReceived",
          "type": "uint256"
        },
        {
          "indexed": false,
          "internalType": "uint256",
          "name": "tokensintoLiquidity",
          "type": "uint256"
        }
      ],
      "name": "SwapAndLiquify",
      "type": "event"
    },
    {
      "anonymous": false,
      "inputs": [
        {
          "indexed": false,
          "internalType": "bool",
          "name": "enabled",
          "type": "bool"
        }
      ],
      "name": "SwapAndLiquifyEnabledUpdated",
      "type": "event"
    },
    {
      "anonymous": false,
      "inputs": [
        {
          "indexed": true,
          "internalType": "address",
          "name": "from",
          "type": "address"
        },
        {
          "indexed": true,
          "internalType": "address",
          "name": "to",
          "type": "address"
        },
        {
          "indexed": false,
          "internalType": "uint256",
          "name": "value",
          "type": "uint256"
        }
      ],
      "name": "Transfer",
      "type": "event"
    },
    {
      "anonymous": false,
      "inputs": [
        {
          "indexed": true,
          "internalType": "address",
          "name": "from",
          "type": "address"
        },
        {
          "indexed": true,
          "internalType": "address",
          "name": "to",
          "type": "address"
        },
        {
          "indexed": false,
          "internalType": "uint256",
          "name": "total",
          "type": "uint256"
        }
      ],
      "name": "WhitelistedTransfer",
      "type": "event"
    },
    {
      "inputs": [],
      "name": "DELEGATION_TYPEHASH",
      "outputs": [
        {
          "internalType": "bytes32",
          "name": "",
          "type": "bytes32"
        }
      ],
      "stateMutability": "view",
      "type": "function",
      "constant": true
    },
    {
      "inputs": [],
      "name": "DOMAIN_TYPEHASH",
      "outputs": [
        {
          "internalType": "bytes32",
          "name": "",
          "type": "bytes32"
        }
      ],
      "stateMutability": "view",
      "type": "function",
      "constant": true
    },
    {
      "inputs": [],
      "name": "burnAddress",
      "outputs": [
        {
          "internalType": "address",
          "name": "",
          "type": "address"
        }
      ],
      "stateMutability": "view",
      "type": "function",
      "constant": true
    },
    {
      "inputs": [],
      "name": "buybackFee",
      "outputs": [
        {
          "internalType": "uint256",
          "name": "",
          "type": "uint256"
        }
      ],
      "stateMutability": "view",
      "type": "function",
      "constant": true
    },
    {
      "inputs": [],
      "name": "buybackTo",
      "outputs": [
        {
          "internalType": "address",
          "name": "",
          "type": "address"
        }
      ],
      "stateMutability": "view",
      "type": "function",
      "constant": true
    },
    {
      "inputs": [
        {
          "internalType": "address",
          "name": "",
          "type": "address"
        },
        {
          "internalType": "uint32",
          "name": "",
          "type": "uint32"
        }
      ],
      "name": "checkpoints",
      "outputs": [
        {
          "internalType": "uint32",
          "name": "fromBlock",
          "type": "uint32"
        },
        {
          "internalType": "uint256",
          "name": "votes",
          "type": "uint256"
        }
      ],
      "stateMutability": "view",
      "type": "function",
      "constant": true
    },
    {
      "inputs": [],
      "name": "crosswiseRouter",
      "outputs": [
        {
          "internalType": "contract ICrosswiseRouter02",
          "name": "",
          "type": "address"
        }
      ],
      "stateMutability": "view",
      "type": "function",
      "constant": true
    },
    {
      "inputs": [],
      "name": "crssBnbPair",
      "outputs": [
        {
          "internalType": "address",
          "name": "",
          "type": "address"
        }
      ],
      "stateMutability": "view",
      "type": "function",
      "constant": true
    },
    {
      "inputs": [],
      "name": "devFee",
      "outputs": [
        {
          "internalType": "uint256",
          "name": "",
          "type": "uint256"
        }
      ],
      "stateMutability": "view",
      "type": "function",
      "constant": true
    },
    {
      "inputs": [],
      "name": "devTo",
      "outputs": [
        {
          "internalType": "address",
          "name": "",
          "type": "address"
        }
      ],
      "stateMutability": "view",
      "type": "function",
      "constant": true
    },
    {
      "inputs": [],
      "name": "liquidityFee",
      "outputs": [
        {
          "internalType": "uint256",
          "name": "",
          "type": "uint256"
        }
      ],
      "stateMutability": "view",
      "type": "function",
      "constant": true
    },
    {
      "inputs": [],
      "name": "maxSupply",
      "outputs": [
        {
          "internalType": "uint256",
          "name": "",
          "type": "uint256"
        }
      ],
      "stateMutability": "view",
      "type": "function",
      "constant": true
    },
    {
      "inputs": [],
      "name": "maxTransferAmountRate",
      "outputs": [
        {
          "internalType": "uint256",
          "name": "",
          "type": "uint256"
        }
      ],
      "stateMutability": "view",
      "type": "function",
      "constant": true
    },
    {
      "inputs": [
        {
          "internalType": "address",
          "name": "",
          "type": "address"
        }
      ],
      "name": "nonces",
      "outputs": [
        {
          "internalType": "uint256",
          "name": "",
          "type": "uint256"
        }
      ],
      "stateMutability": "view",
      "type": "function",
      "constant": true
    },
    {
      "inputs": [
        {
          "internalType": "address",
          "name": "",
          "type": "address"
        }
      ],
      "name": "numCheckpoints",
      "outputs": [
        {
          "internalType": "uint32",
          "name": "",
          "type": "uint32"
        }
      ],
      "stateMutability": "view",
      "type": "function",
      "constant": true
    },
    {
      "inputs": [],
      "name": "oldCrss",
      "outputs": [
        {
          "internalType": "contract IBEP20",
          "name": "",
          "type": "address"
        }
      ],
      "stateMutability": "view",
      "type": "function",
      "constant": true
    },
    {
      "inputs": [],
      "name": "owner",
      "outputs": [
        {
          "internalType": "address",
          "name": "",
          "type": "address"
        }
      ],
      "stateMutability": "view",
      "type": "function",
      "constant": true
    },
    {
      "inputs": [],
      "name": "renounceOwnership",
      "outputs": [],
      "stateMutability": "nonpayable",
      "type": "function"
    },
    {
      "inputs": [],
      "name": "swapAndLiquifyEnabled",
      "outputs": [
        {
          "internalType": "bool",
          "name": "",
          "type": "bool"
        }
      ],
      "stateMutability": "view",
      "type": "function",
      "constant": true
    },
    {
      "inputs": [
        {
          "internalType": "address",
          "name": "newOwner",
          "type": "address"
        }
      ],
      "name": "transferOwnership",
      "outputs": [],
      "stateMutability": "nonpayable",
      "type": "function"
    },
    {
      "stateMutability": "payable",
      "type": "receive",
      "payable": true
    },
    {
      "inputs": [
        {
          "internalType": "address",
          "name": "router",
          "type": "address"
        }
      ],
      "name": "init_router",
      "outputs": [],
      "stateMutability": "nonpayable",
      "type": "function"
    },
    {
      "inputs": [],
      "name": "getOwner",
      "outputs": [
        {
          "internalType": "address",
          "name": "",
          "type": "address"
        }
      ],
      "stateMutability": "view",
      "type": "function",
      "constant": true
    },
    {
      "inputs": [],
      "name": "name",
      "outputs": [
        {
          "internalType": "string",
          "name": "",
          "type": "string"
        }
      ],
      "stateMutability": "view",
      "type": "function",
      "constant": true
    },
    {
      "inputs": [],
      "name": "decimals",
      "outputs": [
        {
          "internalType": "uint8",
          "name": "",
          "type": "uint8"
        }
      ],
      "stateMutability": "view",
      "type": "function",
      "constant": true
    },
    {
      "inputs": [],
      "name": "symbol",
      "outputs": [
        {
          "internalType": "string",
          "name": "",
          "type": "string"
        }
      ],
      "stateMutability": "view",
      "type": "function",
      "constant": true
    },
    {
      "inputs": [],
      "name": "totalSupply",
      "outputs": [
        {
          "internalType": "uint256",
          "name": "",
          "type": "uint256"
        }
      ],
      "stateMutability": "view",
      "type": "function",
      "constant": true
    },
    {
      "inputs": [
        {
          "internalType": "address",
          "name": "account",
          "type": "address"
        }
      ],
      "name": "balanceOf",
      "outputs": [
        {
          "internalType": "uint256",
          "name": "",
          "type": "uint256"
        }
      ],
      "stateMutability": "view",
      "type": "function",
      "constant": true
    },
    {
      "inputs": [
        {
          "internalType": "address",
          "name": "owner",
          "type": "address"
        },
        {
          "internalType": "address",
          "name": "spender",
          "type": "address"
        }
      ],
      "name": "allowance",
      "outputs": [
        {
          "internalType": "uint256",
          "name": "",
          "type": "uint256"
        }
      ],
      "stateMutability": "view",
      "type": "function",
      "constant": true
    },
    {
      "inputs": [
        {
          "internalType": "address",
          "name": "spender",
          "type": "address"
        },
        {
          "internalType": "uint256",
          "name": "amount",
          "type": "uint256"
        }
      ],
      "name": "approve",
      "outputs": [
        {
          "internalType": "bool",
          "name": "",
          "type": "bool"
        }
      ],
      "stateMutability": "nonpayable",
      "type": "function"
    },
    {
      "inputs": [
        {
          "internalType": "address",
          "name": "spender",
          "type": "address"
        },
        {
          "internalType": "uint256",
          "name": "addedValue",
          "type": "uint256"
        }
      ],
      "name": "increaseAllowance",
      "outputs": [
        {
          "internalType": "bool",
          "name": "",
          "type": "bool"
        }
      ],
      "stateMutability": "nonpayable",
      "type": "function"
    },
    {
      "inputs": [
        {
          "internalType": "address",
          "name": "spender",
          "type": "address"
        },
        {
          "internalType": "uint256",
          "name": "subtractedValue",
          "type": "uint256"
        }
      ],
      "name": "decreaseAllowance",
      "outputs": [
        {
          "internalType": "bool",
          "name": "",
          "type": "bool"
        }
      ],
      "stateMutability": "nonpayable",
      "type": "function"
    },
    {
      "inputs": [
        {
          "internalType": "address",
          "name": "recipient",
          "type": "address"
        },
        {
          "internalType": "uint256",
          "name": "amount",
          "type": "uint256"
        }
      ],
      "name": "transfer",
      "outputs": [
        {
          "internalType": "bool",
          "name": "",
          "type": "bool"
        }
      ],
      "stateMutability": "nonpayable",
      "type": "function"
    },
    {
      "inputs": [
        {
          "internalType": "address",
          "name": "sender",
          "type": "address"
        },
        {
          "internalType": "address",
          "name": "recipient",
          "type": "address"
        },
        {
          "internalType": "uint256",
          "name": "amount",
          "type": "uint256"
        }
      ],
      "name": "transferFrom",
      "outputs": [
        {
          "internalType": "bool",
          "name": "",
          "type": "bool"
        }
      ],
      "stateMutability": "nonpayable",
      "type": "function"
    },
    {
      "inputs": [],
      "name": "claimV1Token",
      "outputs": [],
      "stateMutability": "nonpayable",
      "type": "function"
    },
    {
      "inputs": [
        {
          "internalType": "bool",
          "name": "_enabled",
          "type": "bool"
        }
      ],
      "name": "setSwapAndLiquifyEnabled",
      "outputs": [],
      "stateMutability": "nonpayable",
      "type": "function"
    },
    {
      "inputs": [
        {
          "internalType": "uint256",
          "name": "_maxTransferAmountRate",
          "type": "uint256"
        }
      ],
      "name": "setMaxTransferAmountRate",
      "outputs": [],
      "stateMutability": "nonpayable",
      "type": "function"
    },
    {
      "inputs": [
        {
          "internalType": "address",
          "name": "_addr",
          "type": "address"
        },
        {
          "internalType": "bool",
          "name": "_status",
          "type": "bool"
        }
      ],
      "name": "setWhiteList",
      "outputs": [],
      "stateMutability": "nonpayable",
      "type": "function"
    },
    {
      "inputs": [
        {
          "internalType": "address",
          "name": "_to",
          "type": "address"
        },
        {
          "internalType": "uint256",
          "name": "_amount",
          "type": "uint256"
        }
      ],
      "name": "mint",
      "outputs": [],
      "stateMutability": "nonpayable",
      "type": "function"
    },
    {
      "inputs": [
        {
          "internalType": "address",
          "name": "delegator",
          "type": "address"
        }
      ],
      "name": "delegates",
      "outputs": [
        {
          "internalType": "address",
          "name": "",
          "type": "address"
        }
      ],
      "stateMutability": "view",
      "type": "function",
      "constant": true
    },
    {
      "inputs": [
        {
          "internalType": "address",
          "name": "delegatee",
          "type": "address"
        }
      ],
      "name": "delegate",
      "outputs": [],
      "stateMutability": "nonpayable",
      "type": "function"
    },
    {
      "inputs": [
        {
          "internalType": "address",
          "name": "delegatee",
          "type": "address"
        },
        {
          "internalType": "uint256",
          "name": "nonce",
          "type": "uint256"
        },
        {
          "internalType": "uint256",
          "name": "expiry",
          "type": "uint256"
        },
        {
          "internalType": "uint8",
          "name": "v",
          "type": "uint8"
        },
        {
          "internalType": "bytes32",
          "name": "r",
          "type": "bytes32"
        },
        {
          "internalType": "bytes32",
          "name": "s",
          "type": "bytes32"
        }
      ],
      "name": "delegateBySig",
      "outputs": [],
      "stateMutability": "nonpayable",
      "type": "function"
    },
    {
      "inputs": [
        {
          "internalType": "address",
          "name": "account",
          "type": "address"
        }
      ],
      "name": "getCurrentVotes",
      "outputs": [
        {
          "internalType": "uint256",
          "name": "",
          "type": "uint256"
        }
      ],
      "stateMutability": "view",
      "type": "function",
      "constant": true
    },
    {
      "inputs": [
        {
          "internalType": "address",
          "name": "account",
          "type": "address"
        },
        {
          "internalType": "uint256",
          "name": "blockNumber",
          "type": "uint256"
        }
      ],
      "name": "getPriorVotes",
      "outputs": [
        {
          "internalType": "uint256",
          "name": "",
          "type": "uint256"
        }
      ],
      "stateMutability": "view",
      "type": "function",
      "constant": true
    },
    {
      "inputs": [],
      "name": "maxTransferAmount",
      "outputs": [
        {
          "internalType": "uint256",
          "name": "",
          "type": "uint256"
        }
      ],
      "stateMutability": "view",
      "type": "function",
      "constant": true
    },
    {
      "inputs": [
        {
          "internalType": "address",
          "name": "_account",
          "type": "address"
        }
      ],
      "name": "isExcludedFromAntiWhale",
      "outputs": [
        {
          "internalType": "bool",
          "name": "",
          "type": "bool"
        }
      ],
      "stateMutability": "view",
      "type": "function",
      "constant": true
    },
    {
      "inputs": [
        {
          "internalType": "address",
          "name": "_account",
          "type": "address"
        },
        {
          "internalType": "bool",
          "name": "_excluded",
          "type": "bool"
        }
      ],
      "name": "setExcludedFromAntiWhale",
      "outputs": [],
      "stateMutability": "nonpayable",
      "type": "function"
    }
  ],
  "bytecode": "0x60806040526032603d55603f805460ff60a81b1916600160a81b1790553480156200002957600080fd5b5060405162003a2038038062003a20833981810160405260608110156200004f57600080fd5b508051602082015160409092015190919060006200006c620002c3565b600080546001600160a01b0319166001600160a01b0383169081178255604051929350917f8be0079c531659141344cd1fd0a4f28419497f9722a3daafe3b4186f6b6457e0908290a35060016033556001600160a01b03831662000117576040805162461bcd60e51b815260206004820152601e60248201527f43727373546f6b656e3a206465762061646472657373206973207a65726f0000604482015290519081900360640190fd5b6001600160a01b0382166200015e5760405162461bcd60e51b8152600401808060200182810382526022815260200180620039db6022913960400191505060405180910390fd5b6001600160a01b038116620001a55760405162461bcd60e51b8152600401808060200182810382526023815260200180620039fd6023913960400191505060405180910390fd5b6040805180820190915260128082527121b937b9b9bbb4b9b2902b18902a37b5b2b760711b6020909201918252620001e091603791620002c7565b50604080518082019091526004808252634352535360e01b60209092019182526200020e91603891620002c7565b5060398054601260ff1991821617909155603e80546001600160a01b03199081166001600160a01b0396871617909155603f805482169486169490941790935560428054909316919093161790556004603a556003603b819055603c55336000908152604360205260408082208054841660019081179091557f8872e3e321618d759d961376a09ede5795255e81a37cc4a6812c4ae68bf2f7cd80548516821790553083529120805490921617905562000363565b3390565b828054600181600116156101000203166002900490600052602060002090601f016020900481019282601f106200030a57805160ff19168380011785556200033a565b828001600101855582156200033a579182015b828111156200033a5782518255916020019190600101906200031d565b50620003489291506200034c565b5090565b5b808211156200034857600081556001016200034d565b61366880620003736000396000f3fe6080604052600436106102815760003560e01c8063715018a61161014f578063a9e75723116100c1578063cc1243721161007a578063cc1243721461096a578063d5abeb011461097f578063dd62ed3e14610994578063e7a324dc146109cf578063f1127ed8146109e4578063f2fde38b14610a4357610288565b8063a9e7572314610852578063b4b5ea5714610867578063c2277fb81461089a578063c3cda520146108af578063c49b9a8014610903578063c7f59a671461092f57610288565b80638d14e127116101135780638d14e127146107665780638da5cb5b146107a157806395d89b41146107b657806398118cb4146107cb578063a457c2d7146107e0578063a9059cbb1461081957610288565b8063715018a6146106bb578063782d6fe1146106d05780637ecebe0014610709578063893d20e81461073c5780638a62dd8b1461075157610288565b80633b2d081c116101f35780635c19a95c116101ac5780635c19a95c146105ca5780636827e764146105fd5780636c55b23c146106125780636fcfff451461062757806370a082311461067357806370d5ae05146106a657610288565b80633b2d081c1461050a5780633ff8bf2e1461051f57806340c10f19146105345780634a74bb021461056d57806350562fbb14610582578063587cde1e1461059757610288565b806320606b701161024557806320606b70146103ea57806323b872dd146103ff578063269f534c14610442578063313ce567146104755780633908a8fb146104a057806339509351146104d157610288565b8063042fe81a1461028d57806306fdde03146102b9578063095ea7b3146103435780631702ba7c1461039057806318160ddd146103c357610288565b3661028857005b600080fd5b34801561029957600080fd5b506102b7600480360360208110156102b057600080fd5b5035610a76565b005b3480156102c557600080fd5b506102ce610b54565b6040805160208082528351818301528351919283929083019185019080838360005b838110156103085781810151838201526020016102f0565b50505050905090810190601f1680156103355780820380516001836020036101000a031916815260200191505b509250505060405180910390f35b34801561034f57600080fd5b5061037c6004803603604081101561036657600080fd5b506001600160a01b038135169060200135610bea565b604080519115158252519081900360200190f35b34801561039c57600080fd5b506102b7600480360360208110156103b357600080fd5b50356001600160a01b0316610c08565b3480156103cf57600080fd5b506103d8610edc565b60408051918252519081900360200190f35b3480156103f657600080fd5b506103d8610ee2565b34801561040b57600080fd5b5061037c6004803603606081101561042257600080fd5b506001600160a01b03813581169160208101359091169060400135610f06565b34801561044e57600080fd5b5061037c6004803603602081101561046557600080fd5b50356001600160a01b03166113f0565b34801561048157600080fd5b5061048a61140e565b6040805160ff9092168252519081900360200190f35b3480156104ac57600080fd5b506104b5611417565b604080516001600160a01b039092168252519081900360200190f35b3480156104dd57600080fd5b5061037c600480360360408110156104f457600080fd5b506001600160a01b038135169060200135611426565b34801561051657600080fd5b506103d8611474565b34801561052b57600080fd5b506103d861147a565b34801561054057600080fd5b506102b76004803603604081101561055757600080fd5b506001600160a01b038135169060200135611480565b34801561057957600080fd5b5061037c611511565b34801561058e57600080fd5b506102b7611521565b3480156105a357600080fd5b506104b5600480360360208110156105ba57600080fd5b50356001600160a01b031661165d565b3480156105d657600080fd5b506102b7600480360360208110156105ed57600080fd5b50356001600160a01b031661167b565b34801561060957600080fd5b506103d861168c565b34801561061e57600080fd5b506104b5611692565b34801561063357600080fd5b5061065a6004803603602081101561064a57600080fd5b50356001600160a01b03166116a1565b6040805163ffffffff9092168252519081900360200190f35b34801561067f57600080fd5b506103d86004803603602081101561069657600080fd5b50356001600160a01b03166116b9565b3480156106b257600080fd5b506104b56116d4565b3480156106c757600080fd5b506102b76116da565b3480156106dc57600080fd5b506103d8600480360360408110156106f357600080fd5b506001600160a01b038135169060200135611786565b34801561071557600080fd5b506103d86004803603602081101561072c57600080fd5b50356001600160a01b031661198e565b34801561074857600080fd5b506104b56119a0565b34801561075d57600080fd5b506104b56119af565b34801561077257600080fd5b506102b76004803603604081101561078957600080fd5b506001600160a01b03813516906020013515156119be565b3480156107ad57600080fd5b506104b5611ac5565b3480156107c257600080fd5b506102ce611ad4565b3480156107d757600080fd5b506103d8611b35565b3480156107ec57600080fd5b5061037c6004803603604081101561080357600080fd5b506001600160a01b038135169060200135611b3b565b34801561082557600080fd5b5061037c6004803603604081101561083c57600080fd5b506001600160a01b038135169060200135611ba3565b34801561085e57600080fd5b506103d86120e8565b34801561087357600080fd5b506103d86004803603602081101561088a57600080fd5b50356001600160a01b0316612104565b3480156108a657600080fd5b506104b5612168565b3480156108bb57600080fd5b506102b7600480360360c08110156108d257600080fd5b506001600160a01b038135169060208101359060408101359060ff6060820135169060808101359060a00135612177565b34801561090f57600080fd5b506102b76004803603602081101561092657600080fd5b503515156123ea565b34801561093b57600080fd5b506102b76004803603604081101561095257600080fd5b506001600160a01b038135169060200135151561249f565b34801561097657600080fd5b506104b561252c565b34801561098b57600080fd5b506103d861253b565b3480156109a057600080fd5b506103d8600480360360408110156109b757600080fd5b506001600160a01b038135811691602001351661254a565b3480156109db57600080fd5b506103d8612575565b3480156109f057600080fd5b50610a2360048036036040811015610a0757600080fd5b5080356001600160a01b0316906020013563ffffffff16612599565b6040805163ffffffff909316835260208301919091528051918290030190f35b348015610a4f57600080fd5b506102b760048036036020811015610a6657600080fd5b50356001600160a01b03166125c6565b610a7e6126c8565b6001600160a01b0316610a8f611ac5565b6001600160a01b031614610ad8576040805162461bcd60e51b815260206004820181905260248201526000805160206134b0833981519152604482015290519081900360640190fd5b612710811115610b195760405162461bcd60e51b815260040180806020018281038252605e8152602001806133cb605e913960600191505060405180910390fd5b603d8190556040805182815290517f85bc7fedd13b581cdae3c9f8b61031058360d53bc40282744493b1f6940282819181900360200190a150565b60378054604080516020601f6002600019610100600188161502019095169490940493840181900481028201810190925282815260609390929091830182828015610be05780601f10610bb557610100808354040283529160200191610be0565b820191906000526020600020905b815481529060010190602001808311610bc357829003601f168201915b5050505050905090565b6000610bfe610bf76126c8565b84846126cc565b5060015b92915050565b610c106126c8565b6001600160a01b0316610c21611ac5565b6001600160a01b031614610c6a576040805162461bcd60e51b815260206004820181905260248201526000805160206134b0833981519152604482015290519081900360640190fd5b600054600160a81b900460ff1680610c855750610c856127b8565b80610c9a5750600054600160a01b900460ff16155b610cd55760405162461bcd60e51b815260040180806020018281038252602e8152602001806134d0602e913960400191505060405180910390fd5b600054600160a81b900460ff16158015610d0c576000805460ff60a01b1960ff60a81b19909116600160a81b1716600160a01b1790555b6000829050806001600160a01b031663c45a01556040518163ffffffff1660e01b815260040160206040518083038186803b158015610d4a57600080fd5b505afa158015610d5e573d6000803e3d6000fd5b505050506040513d6020811015610d7457600080fd5b5051604080516346eca80160e11b815290516001600160a01b039283169263c9c6539692309291861691638dd9500291600480820192602092909190829003018186803b158015610dc457600080fd5b505afa158015610dd8573d6000803e3d6000fd5b505050506040513d6020811015610dee57600080fd5b5051604080516001600160e01b031960e086901b1681526001600160a01b0393841660048201529290911660248301525160448083019260209291908290030181600087803b158015610e4057600080fd5b505af1158015610e54573d6000803e3d6000fd5b505050506040513d6020811015610e6a57600080fd5b5051604180546001600160a01b03199081166001600160a01b03938416179091556040805490911683831617815551908416907f69ce05eeb9ff652654ab8e40fcca2c100981e8755a32a7b12539371e1bb8670b90600090a2508015610ed8576000805460ff60a81b191690555b5050565b60365490565b7f8cad95687ba82c2ce50e74f7b754645e5117c3a5bec8151c0726d5857980a86681565b60008383836000610f156120e8565b1115610fa8576001600160a01b03831660009081526043602052604090205460ff16158015610f5d57506001600160a01b03821660009081526043602052604090205460ff16155b15610fa857610f6a6120e8565b811115610fa85760405162461bcd60e51b815260040180806020018281038252603e815260200180613451603e913960400191505060405180910390fd5b60026033541415611000576040805162461bcd60e51b815260206004820152601f60248201527f5265656e7472616e637947756172643a207265656e7472616e742063616c6c00604482015290519081900360640190fd5b60026033556001600160a01b03871661104a5760405162461bcd60e51b81526004018080602001828103825260238152602001806135486023913960400191505060405180910390fd5b6001600160a01b03861661108f5760405162461bcd60e51b81526004018080602001828103825260238152602001806135486023913960400191505060405180910390fd5b6001600160a01b03861660009081526044602052604090205460ff16806110ce57506001600160a01b03871660009081526044602052604090205460ff165b15611160576110de8787876127be565b6001600160a01b0380881660009081526045602052604080822054898416835291205461111092918216911687612910565b856001600160a01b0316876001600160a01b03167f6f14833cfdecbb9c32622fe48ec0af7fdd540090576d26e9dc6fc7e8383fc109876040518082815260200191505060405180910390a3611397565b600061118b612710611185603c54603a54612710030389612a5290919063ffffffff16565b90612aab565b603f54909150600160a01b900460ff161580156111b657506041546001600160a01b03898116911614155b80156111cb5750603f54600160a81b900460ff165b156112105760006111ed612710611185603b548a612a5290919063ffffffff16565b90506111f98282612b12565b91506112068930836127be565b61120e612b6f565b505b6041546001600160a01b0388811691161415611268576112318888886127be565b6001600160a01b03808916600090815260456020526040808220548a8416835291205461126392918216911688612910565b611395565b6112738888836127be565b6001600160a01b03808916600090815260456020526040808220548a841683529120546112a592918216911683612910565b603e54603a546112d5918a916001600160a01b03909116906112d09061271090611185908c90612a52565b6127be565b6001600160a01b0380891660009081526045602052604080822054603e5484168352912054603a546113229392831692919091169061131d9061271090611185908c90612a52565b612910565b603f54603c5461134d918a916001600160a01b03909116906112d09061271090611185908c90612a52565b6001600160a01b0380891660009081526045602052604080822054603f5484168352912054603c546113959392831692919091169061131d9061271090611185908c90612a52565b505b6113dd876113a36126c8565b6113d888604051806060016040528060288152602001613429602891396113d18d6113cc6126c8565b61254a565b9190612c40565b6126cc565b6001935050506001603355509392505050565b6001600160a01b031660009081526043602052604090205460ff1690565b60395460ff1690565b6040546001600160a01b031681565b6000610bfe6114336126c8565b846113d885603560006114446126c8565b6001600160a01b03908116825260208083019390935260409182016000908120918c168152925290205490612cd7565b603c5481565b603d5481565b6114886126c8565b6001600160a01b0316611499611ac5565b6001600160a01b0316146114e2576040805162461bcd60e51b815260206004820181905260248201526000805160206134b0833981519152604482015290519081900360640190fd5b6114ec8282612d31565b6001600160a01b03808316600090815260456020526040812054610ed8921683612910565b603f54600160a81b900460ff1681565b6042546000906001600160a01b03166370a0823161153d6126c8565b6040518263ffffffff1660e01b815260040180826001600160a01b0316815260200191505060206040518083038186803b15801561157a57600080fd5b505afa15801561158e573d6000803e3d6000fd5b505050506040513d60208110156115a457600080fd5b50516042549091506001600160a01b03166323b872dd6115c26126c8565b61dead846040518463ffffffff1660e01b815260040180846001600160a01b03168152602001836001600160a01b031681526020018281526020019350505050602060405180830381600087803b15801561161c57600080fd5b505af1158015611630573d6000803e3d6000fd5b505050506040513d602081101561164657600080fd5b5061165a90506116546126c8565b82611480565b50565b6001600160a01b039081166000908152604560205260409020541690565b61165a6116866126c8565b82612e4a565b603a5481565b603f546001600160a01b031681565b60476020526000908152604090205463ffffffff1681565b6001600160a01b031660009081526034602052604090205490565b61dead81565b6116e26126c8565b6001600160a01b03166116f3611ac5565b6001600160a01b03161461173c576040805162461bcd60e51b815260206004820181905260248201526000805160206134b0833981519152604482015290519081900360640190fd5b600080546040516001600160a01b03909116907f8be0079c531659141344cd1fd0a4f28419497f9722a3daafe3b4186f6b6457e0908390a3600080546001600160a01b0319169055565b60004382106117c65760405162461bcd60e51b81526004018080602001828103825260278152602001806135906027913960400191505060405180910390fd5b6001600160a01b03831660009081526047602052604090205463ffffffff16806117f4576000915050610c02565b6001600160a01b038416600090815260466020908152604080832063ffffffff600019860181168552925290912054168310611863576001600160a01b03841660009081526046602090815260408083206000199490940163ffffffff16835292905220600101549050610c02565b6001600160a01b038416600090815260466020908152604080832083805290915290205463ffffffff1683101561189e576000915050610c02565b600060001982015b8163ffffffff168163ffffffff16111561195757600282820363ffffffff160481036118d06132fc565b506001600160a01b038716600090815260466020908152604080832063ffffffff80861685529083529281902081518083019092528054909316808252600190930154918101919091529087141561193257602001519450610c029350505050565b805163ffffffff1687111561194957819350611950565b6001820392505b50506118a6565b506001600160a01b038516600090815260466020908152604080832063ffffffff9094168352929052206001015491505092915050565b60486020526000908152604090205481565b60006119aa611ac5565b905090565b6042546001600160a01b031681565b6119c66126c8565b6001600160a01b03166119d7611ac5565b6001600160a01b031614611a20576040805162461bcd60e51b815260206004820181905260248201526000805160206134b0833981519152604482015290519081900360640190fd5b6001600160a01b038216611a655760405162461bcd60e51b81526004018080602001828103825260248152602001806135246024913960400191505060405180910390fd5b6001600160a01b038216600081815260446020908152604091829020805460ff1916851515908117909155825190815291517ffd813a33bba8e3b5e540229e266ccd9c045fd61bcb50873786f1bede0ddad3679281900390910190a25050565b6000546001600160a01b031690565b60388054604080516020601f6002600019610100600188161502019095169490940493840181900481028201810190925282815260609390929091830182828015610be05780601f10610bb557610100808354040283529160200191610be0565b603b5481565b6000610bfe611b486126c8565b846113d88560405180606001604052806025815260200161356b6025913960356000611b726126c8565b6001600160a01b03908116825260208083019390935260409182016000908120918d16815292529020549190612c40565b6000611bad6126c8565b83836000611bb96120e8565b1115611c4c576001600160a01b03831660009081526043602052604090205460ff16158015611c0157506001600160a01b03821660009081526043602052604090205460ff16155b15611c4c57611c0e6120e8565b811115611c4c5760405162461bcd60e51b815260040180806020018281038252603e815260200180613451603e913960400191505060405180910390fd5b60026033541415611ca4576040805162461bcd60e51b815260206004820152601f60248201527f5265656e7472616e637947756172643a207265656e7472616e742063616c6c00604482015290519081900360640190fd5b60026033556001600160a01b038616611cee5760405162461bcd60e51b81526004018080602001828103825260238152602001806135486023913960400191505060405180910390fd5b84611cff611cfa6126c8565b6116b9565b1015611d3c5760405162461bcd60e51b81526004018080602001828103825260268152602001806134fe6026913960400191505060405180910390fd5b6001600160a01b03861660009081526044602052604090205460ff1680611d88575060446000611d6a6126c8565b6001600160a01b0316815260208101919091526040016000205460ff165b15611e4057611d9f611d986126c8565b87876127be565b611de960456000611dae6126c8565b6001600160a01b03908116825260208083019390935260409182016000908120548b8316825260459094529190912054918116911687612910565b856001600160a01b0316611dfb6126c8565b6001600160a01b03167f6f14833cfdecbb9c32622fe48ec0af7fdd540090576d26e9dc6fc7e8383fc109876040518082815260200191505060405180910390a36120d6565b6000611e5d612710611185603a5489612a5290919063ffffffff16565b90506000611e7c612710611185603c548a612a5290919063ffffffff16565b90506000611e9482611e8e8a86612b12565b90612b12565b603f54909150600160a01b900460ff16158015611ecc57506041546001600160a01b0316611ec06126c8565b6001600160a01b031614155b8015611ee15750603f54600160a81b900460ff165b15611f2d576000611f03612710611185603b548c612a5290919063ffffffff16565b9050611f0f8282612b12565b9150611f23611f1c6126c8565b30836127be565b611f2b612b6f565b505b6041546001600160a01b038a811691161415611fa457611f55611f4e6126c8565b8a8a6127be565b611f9f60456000611f646126c8565b6001600160a01b03908116825260208083019390935260409182016000908120548e831682526045909452919091205491811691168a612910565b6120d2565b611fb6611faf6126c8565b8a836127be565b61200060456000611fc56126c8565b6001600160a01b03908116825260208083019390935260409182016000908120548e8316825260459094529190912054918116911683612910565b61201d61200b6126c8565b603e546001600160a01b0316856127be565b6120696045600061202c6126c8565b6001600160a01b0390811682526020808301939093526040918201600090812054603e548316825260459094529190912054918116911685612910565b6120866120746126c8565b603f546001600160a01b0316846127be565b6120d2604560006120956126c8565b6001600160a01b0390811682526020808301939093526040918201600090812054603f548316825260459094529190912054918116911684612910565b5050505b60019350505060016033555092915050565b60006119aa612710611185603d546120fe610edc565b90612a52565b6001600160a01b03811660009081526047602052604081205463ffffffff168061212f576000612161565b6001600160a01b038316600090815260466020908152604080832063ffffffff60001986011684529091529020600101545b9392505050565b6041546001600160a01b031681565b60007f8cad95687ba82c2ce50e74f7b754645e5117c3a5bec8151c0726d5857980a8666121a2610b54565b805190602001206121b1612edf565b60408051602080820195909552808201939093526060830191909152306080808401919091528151808403909101815260a0830182528051908401207fe48329057bfd03d55e49b547132e39cffd9c1820ad7b9d4c5307691425d15adf60c08401526001600160a01b038b1660e084015261010083018a90526101208084018a9052825180850390910181526101408401835280519085012061190160f01b6101608501526101628401829052610182808501829052835180860390910181526101a285018085528151918701919091206000918290526101c2860180865281905260ff8b166101e287015261020286018a90526102228601899052935192965090949293909260019261024280840193601f198301929081900390910190855afa1580156122e4573d6000803e3d6000fd5b5050604051601f1901519150506001600160a01b0381166123365760405162461bcd60e51b81526004018080602001828103825260268152602001806135b76026913960400191505060405180910390fd5b6001600160a01b038116600090815260486020526040902080546001810190915589146123945760405162461bcd60e51b81526004018080602001828103825260228152602001806133146022913960400191505060405180910390fd5b874211156123d35760405162461bcd60e51b81526004018080602001828103825260268152602001806133a56026913960400191505060405180910390fd5b6123dd818b612e4a565b505050505b505050505050565b6123f26126c8565b6001600160a01b0316612403611ac5565b6001600160a01b03161461244c576040805162461bcd60e51b815260206004820181905260248201526000805160206134b0833981519152604482015290519081900360640190fd5b603f8054821515600160a81b810260ff60a81b199092169190911790915560408051918252517f53726dfcaf90650aa7eb35524f4d3220f07413c8d6cb404cc8c18bf5591bc1599181900360200190a150565b6124a76126c8565b6001600160a01b03166124b8611ac5565b6001600160a01b031614612501576040805162461bcd60e51b815260206004820181905260248201526000805160206134b0833981519152604482015290519081900360640190fd5b6001600160a01b03919091166000908152604360205260409020805460ff1916911515919091179055565b603e546001600160a01b031681565b6a295be96e6406697200000081565b6001600160a01b03918216600090815260356020908152604080832093909416825291909152205490565b7fe48329057bfd03d55e49b547132e39cffd9c1820ad7b9d4c5307691425d15adf81565b60466020908152600092835260408084209091529082529020805460019091015463ffffffff9091169082565b6125ce6126c8565b6001600160a01b03166125df611ac5565b6001600160a01b031614612628576040805162461bcd60e51b815260206004820181905260248201526000805160206134b0833981519152604482015290519081900360640190fd5b6001600160a01b03811661266d5760405162461bcd60e51b815260040180806020018281038252602681526020018061337f6026913960400191505060405180910390fd5b600080546040516001600160a01b03808516939216917f8be0079c531659141344cd1fd0a4f28419497f9722a3daafe3b4186f6b6457e091a3600080546001600160a01b0319166001600160a01b0392909216919091179055565b3390565b6001600160a01b0383166127115760405162461bcd60e51b815260040180806020018281038252602481526020018061335b6024913960400191505060405180910390fd5b6001600160a01b0382166127565760405162461bcd60e51b81526004018080602001828103825260228152602001806136116022913960400191505060405180910390fd5b6001600160a01b03808416600081815260356020908152604080832094871680845294825291829020859055815185815291517f8c5be1e5ebec7d5bd14f71427d1e84f3dd0314c0f7b2291e5b200ac8c7c3b9259281900390910190a3505050565b303b1590565b6001600160a01b0383166128035760405162461bcd60e51b81526004018080602001828103825260258152602001806133366025913960400191505060405180910390fd5b6001600160a01b0382166128485760405162461bcd60e51b81526004018080602001828103825260238152602001806135486023913960400191505060405180910390fd5b612885816040518060600160405280602681526020016134fe602691396001600160a01b0386166000908152603460205260409020549190612c40565b6001600160a01b0380851660009081526034602052604080822093909355908416815220546128b49082612cd7565b6001600160a01b0380841660008181526034602090815260409182902094909455805185815290519193928716927fddf252ad1be2c89b69c2b068fc378daa952ba7f163c4a11628f55a4df523b3ef92918290030190a3505050565b816001600160a01b0316836001600160a01b0316141580156129325750600081115b15612a4d576001600160a01b038316156129c4576001600160a01b03831660009081526047602052604081205463ffffffff1690816129725760006129a4565b6001600160a01b038516600090815260466020908152604080832063ffffffff60001987011684529091529020600101545b905060006129b28285612b12565b90506129c086848484612ee3565b5050505b6001600160a01b03821615612a4d576001600160a01b03821660009081526047602052604081205463ffffffff1690816129ff576000612a31565b6001600160a01b038416600090815260466020908152604080832063ffffffff60001987011684529091529020600101545b90506000612a3f8285612cd7565b90506123e285848484612ee3565b505050565b600082612a6157506000610c02565b82820282848281612a6e57fe5b04146121615760405162461bcd60e51b815260040180806020018281038252602181526020018061348f6021913960400191505060405180910390fd5b6000808211612b01576040805162461bcd60e51b815260206004820152601a60248201527f536166654d6174683a206469766973696f6e206279207a65726f000000000000604482015290519081900360640190fd5b818381612b0a57fe5b049392505050565b600082821115612b69576040805162461bcd60e51b815260206004820152601e60248201527f536166654d6174683a207375627472616374696f6e206f766572666c6f770000604482015290519081900360640190fd5b50900390565b603f805460ff60a01b1916600160a01b1790556000612b8d306116b9565b90506000612b996120e8565b9050808211612ba85781612baa565b805b91506000612bb9836002612aab565b90506000612bc78483612b12565b905047612bd383613048565b6000612bdf4783612b12565b9050612beb83826131ec565b604080518581526020810183905280820185905290517f17bbfb9a6069321b6ded73bd96327c9e6b7212a5cd51ff219cd61370acafb5619181900360600190a15050603f805460ff60a01b1916905550505050565b60008184841115612ccf5760405162461bcd60e51b81526004018080602001828103825283818151815260200191508051906020019080838360005b83811015612c94578181015183820152602001612c7c565b50505050905090810190601f168015612cc15780820380516001836020036101000a031916815260200191505b509250505060405180910390fd5b505050900390565b600082820183811015612161576040805162461bcd60e51b815260206004820152601b60248201527f536166654d6174683a206164646974696f6e206f766572666c6f770000000000604482015290519081900360640190fd5b6001600160a01b038216612d8c576040805162461bcd60e51b815260206004820152601f60248201527f42455032303a206d696e7420746f20746865207a65726f206164647265737300604482015290519081900360640190fd5b6a295be96e6406697200000081603654011115612dbf57603654612dbc906a295be96e6406697200000090612b12565b90505b603654612dcc9082612cd7565b6036556001600160a01b038216600090815260346020526040902054612df29082612cd7565b6001600160a01b03831660008181526034602090815260408083209490945583518581529351929391927fddf252ad1be2c89b69c2b068fc378daa952ba7f163c4a11628f55a4df523b3ef9281900390910190a35050565b6001600160a01b0380831660009081526045602052604081205490911690612e71846116b9565b6001600160a01b0385811660008181526045602052604080822080546001600160a01b031916898616908117909155905194955093928616927f3134e8a2e6d97e929a7e54011ea5485d7d196dd5f0ba4d4ef95803e8e3fc257f9190a4612ed9828483612910565b50505050565b4690565b6000612f07436040518060600160405280603481526020016135dd6034913961329e565b905060008463ffffffff16118015612f5057506001600160a01b038516600090815260466020908152604080832063ffffffff6000198901811685529252909120548282169116145b15612f8d576001600160a01b038516600090815260466020908152604080832063ffffffff60001989011684529091529020600101829055612ffe565b60408051808201825263ffffffff808416825260208083018681526001600160a01b038a166000818152604684528681208b8616825284528681209551865490861663ffffffff19918216178755925160019687015590815260479092529390208054928801909116919092161790555b604080518481526020810184905281516001600160a01b038816927fdec2bacdd2f05b59de34da9b523dff8be42e5e38e818c82fdb0bae774387a724928290030190a25050505050565b6040805160028082526060808301845292602083019080368337019050509050308160008151811061307657fe5b6001600160a01b039283166020918202929092018101919091526040805481516346eca80160e11b81529151931692638dd9500292600480840193919291829003018186803b1580156130c857600080fd5b505afa1580156130dc573d6000803e3d6000fd5b505050506040513d60208110156130f257600080fd5b505181518290600190811061310357fe5b6001600160a01b03928316602091820292909201015260405461312991309116846126cc565b60408054905163791ac94760e01b8152600481018481526000602483018190523060648401819052426084850181905260a060448601908152875160a487015287516001600160a01b039097169663791ac947968a968a9594939092909160c40190602080880191028083838b5b838110156131af578181015183820152602001613197565b505050509050019650505050505050600060405180830381600087803b1580156131d857600080fd5b505af11580156123e2573d6000803e3d6000fd5b6040546132049030906001600160a01b0316846126cc565b60408054815163f305d71960e01b8152306004820181905260248201869052600060448301819052606483015260848201524260a482015291516001600160a01b039091169163f305d71991849160c48082019260609290919082900301818588803b15801561327357600080fd5b505af1158015613287573d6000803e3d6000fd5b50505050506040513d6060811015612ed957600080fd5b60008164010000000084106132f45760405162461bcd60e51b8152602060048201818152835160248401528351909283926044909101919085019080838360008315612c94578181015183820152602001612c7c565b509192915050565b60408051808201909152600080825260208201529056fe435253533a3a64656c656761746542795369673a20696e76616c6964206e6f6e636542455032303a207472616e736665722066726f6d20746865207a65726f206164647265737342455032303a20617070726f76652066726f6d20746865207a65726f20616464726573734f776e61626c653a206e6577206f776e657220697320746865207a65726f2061646472657373435253533a3a64656c656761746542795369673a207369676e6174757265206578706972656443727373546f6b656e2e7365744d61785472616e73666572416d6f756e74526174653a204d6178207472616e7366657220616d6f756e742072617465206d757374206e6f742065786365656420746865206d6178696d756d20726174652e42455032303a207472616e7366657220616d6f756e74206578636565647320616c6c6f77616e6365435253533a3a616e74695768616c653a205472616e7366657220616d6f756e74206578636565647320746865206d61785472616e73666572416d6f756e74536166654d6174683a206d756c7469706c69636174696f6e206f766572666c6f774f776e61626c653a2063616c6c6572206973206e6f7420746865206f776e6572436f6e747261637420696e7374616e63652068617320616c7265616479206265656e20696e697469616c697a656442455032303a207472616e7366657220616d6f756e7420657863656564732062616c616e636543727373546f6b656e2e73657457686974654c6973743a205a65726f204164647265737342455032303a207472616e7366657220746f20746865207a65726f206164647265737342455032303a2064656372656173656420616c6c6f77616e63652062656c6f77207a65726f435253533a3a6765745072696f72566f7465733a206e6f74207965742064657465726d696e6564435253533a3a64656c656761746542795369673a20696e76616c6964207369676e6174757265435253533a3a5f7772697465436865636b706f696e743a20626c6f636b206e756d6265722065786365656473203332206269747342455032303a20617070726f766520746f20746865207a65726f2061646472657373a2646970667358221220f72786f25040bd6e2b9229337df9edefff69329857af76bdb791ed6128ed2ffd64736f6c634300060c003343727373546f6b656e3a206275796261636b2061646472657373206973207a65726f43727373546f6b656e3a206f6c6420637273732061646472657373206973207a65726f",
  "immutableReferences": {},
  "source": "// SPDX-License-Identifier: UNLICENSED\n\npragma solidity 0.6.12;\n\nimport \"./libs/Context.sol\";\nimport \"./libs/IBEP20.sol\";\nimport \"./libs/Ownable.sol\";\nimport \"./libs/Initializable.sol\";\nimport './interface/ICrosswiseRouter02.sol';\nimport './interface/ICrosswiseFactory.sol';\n\nimport \"@openzeppelin/contracts/math/SafeMath.sol\";\nimport \"@openzeppelin/contracts/utils/Address.sol\";\nimport \"@openzeppelin/contracts/utils/ReentrancyGuard.sol\";\n// CrssToken with Governance.\ncontract CrssToken is IBEP20, Ownable, Initializable, ReentrancyGuard {\n\n    using SafeMath for uint256;\n    using Address for address;\n\n    mapping(address => uint256) private _balances;\n\n    mapping(address => mapping(address => uint256)) private _allowances;\n\n    uint256 private _totalSupply;\n\n    string private _name;\n    string private _symbol;\n    uint8 private _decimals;\n\n    uint256 public constant maxSupply = 50000000000000000000000000;\n    uint256 public devFee;\n    uint256 public liquidityFee;\n    uint256 public buybackFee;\n\n    uint256 public maxTransferAmountRate = 50;\n\n    address public devTo;\n    address public buybackTo;\n    address public constant burnAddress = 0x000000000000000000000000000000000000dEaD;\n\n    bool inSwapAndLiquify;\n    bool public swapAndLiquifyEnabled = true;\n\n    ICrosswiseRouter02 public crosswiseRouter;\n    address public crssBnbPair;\n    \n    IBEP20 public oldCrss;\n\n    mapping(address => bool) private _excludedFromAntiWhale;\n    mapping(address => bool) whitelist;\n\n    event MinTokensBeforeSwapUpdated(uint256 minTokensBeforeSwap);\n    event SwapAndLiquifyEnabledUpdated(bool enabled);\n    event SwapAndLiquify(\n        uint256 tokensSwapped,\n        uint256 ethReceived,\n        uint256 tokensintoLiquidity\n    );\n    event WhitelistedTransfer(address indexed from, address indexed to, uint256 total);\n    event SetWhiteList(address indexed addr, bool status);\n    event Init_router(address indexed router);\n    event SetMaxTransferAmountRate(uint256 maxTransferAmountRate);\n\n    modifier lockTheSwap {\n        inSwapAndLiquify = true;\n        _;\n        inSwapAndLiquify = false;\n    }\n\n    modifier antiWhale(address sender, address recipient, uint256 amount) {\n        if (maxTransferAmount() > 0) {\n            if (\n                _excludedFromAntiWhale[sender] == false\n                && _excludedFromAntiWhale[recipient] == false\n            ) {\n                require(amount <= maxTransferAmount(), \"CRSS::antiWhale: Transfer amount exceeds the maxTransferAmount\");\n            }\n        }\n        _;\n    }\n\n    //to recieve ETH from crosswiseRouter when swaping\n    receive() external payable {}\n\n    constructor(\n        address _devTo,\n        address _buybackTo,\n        IBEP20 _oldCrss\n    ) public {\n        require(_devTo != address(0), 'CrssToken: dev address is zero');\n        require(_buybackTo != address(0), 'CrssToken: buyback address is zero');\n        require(address(_oldCrss) != address(0), 'CrssToken: old crss address is zero');\n\n        _name = 'Crosswise V1 Token';\n        _symbol = 'CRSS';\n        _decimals = 18;\n\n        devTo = _devTo;\n        buybackTo = _buybackTo;\n\n        oldCrss = _oldCrss;\n\n        devFee = 4; // 0.04%\n        liquidityFee = 3; // 0.03%\n        buybackFee = 3; // 0.03%\n\n        _excludedFromAntiWhale[msg.sender] = true;\n        _excludedFromAntiWhale[address(0)] = true;\n        _excludedFromAntiWhale[address(this)] = true;\n    }\n    \n    function init_router(address router) public onlyOwner initializer {\n        ICrosswiseRouter02 _crosswiseRouter = ICrosswiseRouter02(router);\n        // Create a uniswap pair for this new token\n        crssBnbPair = ICrosswiseFactory(_crosswiseRouter.factory())\n        .createPair(address(this), _crosswiseRouter.WBNB());\n\n        // set the rest of the contract variables\n        crosswiseRouter = _crosswiseRouter;\n        emit Init_router(router);\n    }\n    \n    function getOwner() external view returns (address) {\n        return owner();\n    }\n    function name() public view returns (string memory) {\n        return _name;\n    }\n    function decimals() public view returns (uint8) {\n        return _decimals;\n    }\n    function symbol() public view returns (string memory) {\n        return _symbol;\n    }\n    function totalSupply() public override view returns (uint256) {\n        return _totalSupply;\n    }\n    function balanceOf(address account) public override view returns (uint256) {\n        return _balances[account];\n    }\n    function allowance(address owner, address spender) public override view returns (uint256) {\n        return _allowances[owner][spender];\n    }\n    function approve(address spender, uint256 amount) public override returns (bool) {\n        _approve(_msgSender(), spender, amount);\n        return true;\n    }\n    function increaseAllowance(address spender, uint256 addedValue) public returns (bool) {\n        _approve(_msgSender(), spender, _allowances[_msgSender()][spender].add(addedValue));\n        return true;\n    }\n    function decreaseAllowance(address spender, uint256 subtractedValue) public returns (bool) {\n        _approve(\n            _msgSender(),\n            spender,\n            _allowances[_msgSender()][spender].sub(subtractedValue, 'BEP20: decreased allowance below zero')\n        );\n        return true;\n    }\n\n    function _mint(address account, uint256 amount) internal {\n        require(account != address(0), 'BEP20: mint to the zero address');\n        if(_totalSupply + amount > maxSupply) {\n            amount = maxSupply.sub(_totalSupply);\n        }\n        _totalSupply = _totalSupply.add(amount);\n        _balances[account] = _balances[account].add(amount);\n        emit Transfer(address(0), account, amount);\n    }\n\n    function _approve(\n        address owner,\n        address spender,\n        uint256 amount\n    ) internal {\n        require(owner != address(0), 'BEP20: approve from the zero address');\n        require(spender != address(0), 'BEP20: approve to the zero address');\n\n        _allowances[owner][spender] = amount;\n        emit Approval(owner, spender, amount);\n    }\n\n    \n    function transfer(address recipient, uint256 amount) public override antiWhale(_msgSender(), recipient, amount) nonReentrant returns (bool) {\n        require(recipient != address(0), \"BEP20: transfer to the zero address\");\n        require(balanceOf(_msgSender()) >= amount, \"BEP20: transfer amount exceeds balance\");\n\n        if (whitelist[recipient] || whitelist[_msgSender()]) {\n            _transfer(_msgSender(), recipient, amount);\n            _moveDelegates(_delegates[_msgSender()], _delegates[recipient], amount);\n            emit WhitelistedTransfer(_msgSender(), recipient, amount);\n        } else {\n            uint256 devAmount = amount.mul(devFee).div(10000);\n            uint256 buybackAmount = amount.mul(buybackFee).div(10000);\n            uint256 transferAmount = amount.sub(devAmount).sub(buybackAmount);\n\n            if (\n                !inSwapAndLiquify &&\n                _msgSender() != crssBnbPair &&\n                swapAndLiquifyEnabled\n            ) {\n                uint256 liquidityAmount = amount.mul(liquidityFee).div(10000);\n                transferAmount = transferAmount.sub(liquidityAmount);\n                _transfer(_msgSender(), address(this), liquidityAmount);\n                swapAndLiquify();\n            }\n\n            if(recipient == crssBnbPair) {\n                _transfer(_msgSender(), recipient, amount);    \n                _moveDelegates(_delegates[_msgSender()], _delegates[recipient], amount);\n            }\n            else {\n                _transfer(_msgSender(), recipient, transferAmount);\n                _moveDelegates(_delegates[_msgSender()], _delegates[recipient], transferAmount);\n\n                _transfer(_msgSender(), devTo, devAmount);\n                _moveDelegates(_delegates[_msgSender()], _delegates[devTo], devAmount);\n\n                _transfer(_msgSender(), buybackTo, buybackAmount);\n                _moveDelegates(_delegates[_msgSender()], _delegates[buybackTo], buybackAmount);\n            }\n        }\n\n        return true;\n    }\n\n    function transferFrom(\n        address sender,\n        address recipient,\n        uint256 amount\n    ) public override antiWhale(sender, recipient, amount) nonReentrant returns (bool) {\n        require(sender != address(0), \"BEP20: transfer to the zero address\");\n        require(recipient != address(0), \"BEP20: transfer to the zero address\");\n\n        if (whitelist[recipient] || whitelist[sender]) {\n            _transfer(sender, recipient, amount);\n            _moveDelegates(_delegates[sender], _delegates[recipient], amount);\n            emit WhitelistedTransfer(sender, recipient, amount);\n        } else {\n\n            uint256 transferAmount = amount.mul(10000 - devFee - buybackFee).div(10000);\n\n            if (\n                !inSwapAndLiquify &&\n                sender != crssBnbPair &&\n                swapAndLiquifyEnabled\n            ) {\n                uint256 liquidityAmount = amount.mul(liquidityFee).div(10000);\n                transferAmount = transferAmount.sub(liquidityAmount);\n                _transfer(sender, address(this), liquidityAmount);\n                swapAndLiquify();\n            }\n            if(recipient == crssBnbPair) {\n                _transfer(sender, recipient, amount);\n                _moveDelegates(_delegates[sender], _delegates[recipient], amount);\n            }\n            else {\n                _transfer(sender, recipient, transferAmount);\n                _moveDelegates(_delegates[sender], _delegates[recipient], transferAmount);\n\n                _transfer(sender, devTo, amount.mul(devFee).div(10000));\n                _moveDelegates(_delegates[sender], _delegates[devTo], amount.mul(devFee).div(10000));\n\n                _transfer(sender, buybackTo, amount.mul(buybackFee).div(10000));\n                _moveDelegates(_delegates[sender], _delegates[buybackTo], amount.mul(buybackFee).div(10000));\n            }\n        }\n        _approve(\n            sender,\n            _msgSender(),\n            allowance(sender,_msgSender()).sub(amount, \"BEP20: transfer amount exceeds allowance\")\n        );\n        return true;\n    }\n\n    function _transfer(address sender, address recipient, uint256 amount) internal {\n        require(sender != address(0), 'BEP20: transfer from the zero address');\n        require(recipient != address(0), 'BEP20: transfer to the zero address');\n\n\n        _balances[sender] = _balances[sender].sub(amount, 'BEP20: transfer amount exceeds balance');\n        _balances[recipient] = _balances[recipient].add(amount);\n        emit Transfer(sender, recipient, amount);\n    }\n\n\n    function claimV1Token() external {\n        uint256 balance = oldCrss.balanceOf(_msgSender());\n        oldCrss.transferFrom(_msgSender(), burnAddress, balance);\n        mint(_msgSender(), balance);\n    }\n\n    function setSwapAndLiquifyEnabled(bool _enabled) public onlyOwner {\n        swapAndLiquifyEnabled = _enabled;\n        emit SwapAndLiquifyEnabledUpdated(_enabled);\n    }\n\n     function setMaxTransferAmountRate(uint256 _maxTransferAmountRate) public onlyOwner {\n        require(_maxTransferAmountRate <= 10000, \"CrssToken.setMaxTransferAmountRate: Max transfer amount rate must not exceed the maximum rate.\");\n        maxTransferAmountRate = _maxTransferAmountRate;\n        emit SetMaxTransferAmountRate(_maxTransferAmountRate);\n    }\n\n    function setWhiteList(address _addr, bool _status) external onlyOwner {\n        require(_addr != address(0), \"CrssToken.setWhiteList: Zero Address\");\n        whitelist[_addr] = _status;\n        emit SetWhiteList(_addr, _status);\n    }\n\n    function swapAndLiquify() private lockTheSwap {\n        uint256 contractTokenBalance = balanceOf(address(this));\n        // split the contract balance into halves\n        uint256 maxTransferAmount = maxTransferAmount();\n        contractTokenBalance = contractTokenBalance > maxTransferAmount ? maxTransferAmount : contractTokenBalance;\n\n        uint256 half = contractTokenBalance.div(2);\n        uint256 otherHalf = contractTokenBalance.sub(half);\n\n        // capture the contract's current ETH balance.\n        // this is so that we can capture exactly the amount of ETH that the\n        // swap creates, and not make the liquidity event include any ETH that\n        // has been manually sent to the contract\n        uint256 initialBalance = address(this).balance;\n\n        // swap tokens for ETH\n        swapTokensForBNB(half); // <- this breaks the ETH -> HATE swap when swap+liquify is triggered\n\n        // how much ETH did we just swap into?\n        uint256 newBalance = address(this).balance.sub(initialBalance);\n\n        // add liquidity to uniswap\n        addLiquidity(otherHalf, newBalance);\n        \n        emit SwapAndLiquify(half, newBalance, otherHalf);\n    }\n\n    function swapTokensForBNB(uint256 tokenAmount) private {\n        // generate the uniswap pair path of token -> WBNB\n        address[] memory path = new address[](2);\n        path[0] = address(this);\n        path[1] = crosswiseRouter.WBNB();\n\n        _approve(address(this), address(crosswiseRouter), tokenAmount);\n\n        // make the swap\n        crosswiseRouter.swapExactTokensForETHSupportingFeeOnTransferTokens(\n            tokenAmount,\n            0, // accept any amount of ETH\n            path,\n            address(this),\n            block.timestamp\n        );\n    }\n\n    function addLiquidity(uint256 tokenAmount, uint256 ethAmount) private {\n        // approve token transfer to cover all possible scenarios\n        _approve(address(this), address(crosswiseRouter), tokenAmount);\n\n        // add the liquidity\n        crosswiseRouter.addLiquidityETH{value: ethAmount}(\n            address(this),\n            tokenAmount,\n            0, // slippage is unavoidable\n            0, // slippage is unavoidable\n            address(this),\n            block.timestamp\n        );\n    }\n\n    /// @dev Creates `_amount` token to `_to`. Must only be called by the owner (MasterChef).\n    function mint(address _to, uint256 _amount) public onlyOwner {\n        _mint(_to, _amount);\n        _moveDelegates(address(0), _delegates[_to], _amount);\n    }\n    // Copied and modified from YAM code:\n    // https://github.com/yam-finance/yam-protocol/blob/master/contracts/token/YAMGovernanceStorage.sol\n    // https://github.com/yam-finance/yam-protocol/blob/master/contracts/token/YAMGovernance.sol\n    // Which is copied and modified from COMPOUND:\n    // https://github.com/compound-finance/compound-protocol/blob/master/contracts/Governance/Comp.sol\n\n    /// @dev A record of each accounts delegate\n    mapping (address => address) internal _delegates;\n\n    /// @dev A checkpoint for marking number of votes from a given block\n    struct Checkpoint {\n        uint32 fromBlock;\n        uint256 votes;\n    }\n\n    /// @dev A record of votes checkpoints for each account, by index\n    mapping (address => mapping (uint32 => Checkpoint)) public checkpoints;\n\n    /// @dev The number of checkpoints for each account\n    mapping (address => uint32) public numCheckpoints;\n\n    /// @dev The EIP-712 typehash for the contract's domain\n    bytes32 public constant DOMAIN_TYPEHASH = keccak256(\"EIP712Domain(string name,uint256 chainId,address verifyingContract)\");\n\n    /// @dev The EIP-712 typehash for the delegation struct used by the contract\n    bytes32 public constant DELEGATION_TYPEHASH = keccak256(\"Delegation(address delegatee,uint256 nonce,uint256 expiry)\");\n\n    /// @dev A record of states for signing / validating signatures\n    mapping (address => uint) public nonces;\n\n      /// @dev An event thats emitted when an account changes its delegate\n    event DelegateChanged(address indexed delegator, address indexed fromDelegate, address indexed toDelegate);\n\n    /// @dev An event thats emitted when a delegate account's vote balance changes\n    event DelegateVotesChanged(address indexed delegate, uint previousBalance, uint newBalance);\n\n    /**\n     * @dev Delegate votes from `msg.sender` to `delegatee`\n     * @param delegator The address to get delegatee for\n     */\n    function delegates(address delegator)\n        external\n        view\n        returns (address)\n    {\n        return _delegates[delegator];\n    }\n\n   /**\n    * @dev Delegate votes from `msg.sender` to `delegatee`\n    * @param delegatee The address to delegate votes to\n    */\n    function delegate(address delegatee) external {\n        return _delegate(_msgSender(), delegatee);\n    }\n\n    /**\n     * @dev Delegates votes from signatory to `delegatee`\n     * @param delegatee The address to delegate votes to\n     * @param nonce The contract state required to match the signature\n     * @param expiry The time at which to expire the signature\n     * @param v The recovery byte of the signature\n     * @param r Half of the ECDSA signature pair\n     * @param s Half of the ECDSA signature pair\n     */\n    function delegateBySig(\n        address delegatee,\n        uint nonce,\n        uint expiry,\n        uint8 v,\n        bytes32 r,\n        bytes32 s\n    )\n        external\n    {\n        bytes32 domainSeparator = keccak256(\n            abi.encode(\n                DOMAIN_TYPEHASH,\n                keccak256(bytes(name())),\n                getChainId(),\n                address(this)\n            )\n        );\n\n        bytes32 structHash = keccak256(\n            abi.encode(\n                DELEGATION_TYPEHASH,\n                delegatee,\n                nonce,\n                expiry\n            )\n        );\n\n        bytes32 digest = keccak256(\n            abi.encodePacked(\n                \"\\x19\\x01\",\n                domainSeparator,\n                structHash\n            )\n        );\n\n        address signatory = ecrecover(digest, v, r, s);\n        require(signatory != address(0), \"CRSS::delegateBySig: invalid signature\");\n        require(nonce == nonces[signatory]++, \"CRSS::delegateBySig: invalid nonce\");\n        require(now <= expiry, \"CRSS::delegateBySig: signature expired\");\n        return _delegate(signatory, delegatee);\n    }\n\n    /**\n     * @dev Gets the current votes balance for `account`\n     * @param account The address to get votes balance\n     * @return The number of current votes for `account`\n     */\n    function getCurrentVotes(address account)\n        external\n        view\n        returns (uint256)\n    {\n        uint32 nCheckpoints = numCheckpoints[account];\n        return nCheckpoints > 0 ? checkpoints[account][nCheckpoints - 1].votes : 0;\n    }\n\n    /**\n     * @dev Determine the prior number of votes for an account as of a block number\n     * @dev Block number must be a finalized block or else this function will revert to prevent misinformation.\n     * @param account The address of the account to check\n     * @param blockNumber The block number to get the vote balance at\n     * @return The number of votes the account had as of the given block\n     */\n    function getPriorVotes(address account, uint blockNumber)\n        external\n        view\n        returns (uint256)\n    {\n        require(blockNumber < block.number, \"CRSS::getPriorVotes: not yet determined\");\n\n        uint32 nCheckpoints = numCheckpoints[account];\n        if (nCheckpoints == 0) {\n            return 0;\n        }\n\n        // First check most recent balance\n        if (checkpoints[account][nCheckpoints - 1].fromBlock <= blockNumber) {\n            return checkpoints[account][nCheckpoints - 1].votes;\n        }\n\n        // Next check implicit zero balance\n        if (checkpoints[account][0].fromBlock > blockNumber) {\n            return 0;\n        }\n\n        uint32 lower = 0;\n        uint32 upper = nCheckpoints - 1;\n        while (upper > lower) {\n            uint32 center = upper - (upper - lower) / 2; // ceil, avoiding overflow\n            Checkpoint memory cp = checkpoints[account][center];\n            if (cp.fromBlock == blockNumber) {\n                return cp.votes;\n            } else if (cp.fromBlock < blockNumber) {\n                lower = center;\n            } else {\n                upper = center - 1;\n            }\n        }\n        return checkpoints[account][lower].votes;\n    }\n\n    function _delegate(address delegator, address delegatee)\n        internal\n    {\n        address currentDelegate = _delegates[delegator];\n        uint256 delegatorBalance = balanceOf(delegator); // balance of underlying CRSSs (not scaled);\n        _delegates[delegator] = delegatee;\n\n        emit DelegateChanged(delegator, currentDelegate, delegatee);\n\n        _moveDelegates(currentDelegate, delegatee, delegatorBalance);\n    }\n\n    function _moveDelegates(address srcRep, address dstRep, uint256 amount) internal {\n        if (srcRep != dstRep && amount > 0) {\n            if (srcRep != address(0)) {\n                // decrease old representative\n                uint32 srcRepNum = numCheckpoints[srcRep];\n                uint256 srcRepOld = srcRepNum > 0 ? checkpoints[srcRep][srcRepNum - 1].votes : 0;\n                uint256 srcRepNew = srcRepOld.sub(amount);\n                _writeCheckpoint(srcRep, srcRepNum, srcRepOld, srcRepNew);\n            }\n\n            if (dstRep != address(0)) {\n                // increase new representative\n                uint32 dstRepNum = numCheckpoints[dstRep];\n                uint256 dstRepOld = dstRepNum > 0 ? checkpoints[dstRep][dstRepNum - 1].votes : 0;\n                uint256 dstRepNew = dstRepOld.add(amount);\n                _writeCheckpoint(dstRep, dstRepNum, dstRepOld, dstRepNew);\n            }\n        }\n    }\n\n    function _writeCheckpoint(\n        address delegatee,\n        uint32 nCheckpoints,\n        uint256 oldVotes,\n        uint256 newVotes\n    )\n        internal\n    {\n        uint32 blockNumber = safe32(block.number, \"CRSS::_writeCheckpoint: block number exceeds 32 bits\");\n\n        if (nCheckpoints > 0 && checkpoints[delegatee][nCheckpoints - 1].fromBlock == blockNumber) {\n            checkpoints[delegatee][nCheckpoints - 1].votes = newVotes;\n        } else {\n            checkpoints[delegatee][nCheckpoints] = Checkpoint(blockNumber, newVotes);\n            numCheckpoints[delegatee] = nCheckpoints + 1;\n        }\n\n        emit DelegateVotesChanged(delegatee, oldVotes, newVotes);\n    }\n\n    function maxTransferAmount() public view returns (uint256) {\n        return totalSupply().mul(maxTransferAmountRate).div(10000);\n    }\n\n    function isExcludedFromAntiWhale(address _account) public view returns (bool) {\n        return _excludedFromAntiWhale[_account];\n    }\n\n    function setExcludedFromAntiWhale(address _account, bool _excluded) public onlyOwner {\n        _excludedFromAntiWhale[_account] = _excluded;\n    }\n\n    function safe32(uint n, string memory errorMessage) internal pure returns (uint32) {\n        require(n < 2**32, errorMessage);\n        return uint32(n);\n    }\n\n    function getChainId() internal pure returns (uint) {\n        uint256 chainId;\n        assembly { chainId := chainid() }\n        return chainId;\n    }\n}",
  "sourcePath": "/Volumes/Data/Projects/Crosswise/crosswise-farm/contracts/CrssToken.sol",
  "compiler": {
    "name": "solc",
    "version": "0.6.12+commit.27d51765.Emscripten.clang"
  },
  "schemaVersion": "3.4.4",
  "updatedAt": "2021-12-27T12:20:14.861Z",
  "networkType": "ethereum",
  "devdoc": {
    "events": {
      "DelegateChanged(address,address,address)": {
        "details": "An event thats emitted when an account changes its delegate"
      },
      "DelegateVotesChanged(address,uint256,uint256)": {
        "details": "An event thats emitted when a delegate account's vote balance changes"
      }
    },
    "kind": "dev",
    "methods": {
      "allowance(address,address)": {
        "details": "Returns the remaining number of tokens that `spender` will be allowed to spend on behalf of `owner` through {transferFrom}. This is zero by default. This value changes when {approve} or {transferFrom} are called."
      },
      "approve(address,uint256)": {
        "details": "Sets `amount` as the allowance of `spender` over the caller's tokens. Returns a boolean value indicating whether the operation succeeded. IMPORTANT: Beware that changing an allowance with this method brings the risk that someone may use both the old and the new allowance by unfortunate transaction ordering. One possible solution to mitigate this race condition is to first reduce the spender's allowance to 0 and set the desired value afterwards: https://github.com/ethereum/EIPs/issues/20#issuecomment-263524729 Emits an {Approval} event."
      },
      "balanceOf(address)": {
        "details": "Returns the amount of tokens owned by `account`."
      },
      "delegate(address)": {
        "details": "Delegate votes from `msg.sender` to `delegatee`",
        "params": {
          "delegatee": "The address to delegate votes to"
        }
      },
      "delegateBySig(address,uint256,uint256,uint8,bytes32,bytes32)": {
        "details": "Delegates votes from signatory to `delegatee`",
        "params": {
          "delegatee": "The address to delegate votes to",
          "expiry": "The time at which to expire the signature",
          "nonce": "The contract state required to match the signature",
          "r": "Half of the ECDSA signature pair",
          "s": "Half of the ECDSA signature pair",
          "v": "The recovery byte of the signature"
        }
      },
      "delegates(address)": {
        "details": "Delegate votes from `msg.sender` to `delegatee`",
        "params": {
          "delegator": "The address to get delegatee for"
        }
      },
      "getCurrentVotes(address)": {
        "details": "Gets the current votes balance for `account`",
        "params": {
          "account": "The address to get votes balance"
        },
        "returns": {
          "_0": "The number of current votes for `account`"
        }
      },
      "getPriorVotes(address,uint256)": {
        "details": "Determine the prior number of votes for an account as of a block numberBlock number must be a finalized block or else this function will revert to prevent misinformation.",
        "params": {
          "account": "The address of the account to check",
          "blockNumber": "The block number to get the vote balance at"
        },
        "returns": {
          "_0": "The number of votes the account had as of the given block"
        }
      },
      "mint(address,uint256)": {
        "details": "Creates `_amount` token to `_to`. Must only be called by the owner (MasterChef)."
      },
      "owner()": {
        "details": "Returns the address of the current owner."
      },
      "renounceOwnership()": {
        "details": "Leaves the contract without owner. It will not be possible to call `onlyOwner` functions anymore. Can only be called by the current owner. NOTE: Renouncing ownership will leave the contract without an owner, thereby removing any functionality that is only available to the owner."
      },
      "totalSupply()": {
        "details": "Returns the amount of tokens in existence."
      },
      "transfer(address,uint256)": {
        "details": "Moves `amount` tokens from the caller's account to `recipient`. Returns a boolean value indicating whether the operation succeeded. Emits a {Transfer} event."
      },
      "transferFrom(address,address,uint256)": {
        "details": "Moves `amount` tokens from `sender` to `recipient` using the allowance mechanism. `amount` is then deducted from the caller's allowance. Returns a boolean value indicating whether the operation succeeded. Emits a {Transfer} event."
      },
      "transferOwnership(address)": {
        "details": "Transfers ownership of the contract to a new account (`newOwner`). Can only be called by the current owner."
      }
    },
    "stateVariables": {
      "DELEGATION_TYPEHASH": {
        "details": "The EIP-712 typehash for the delegation struct used by the contract"
      },
      "DOMAIN_TYPEHASH": {
        "details": "The EIP-712 typehash for the contract's domain"
      },
      "_delegates": {
        "details": "A record of each accounts delegate"
      },
      "checkpoints": {
        "details": "A record of votes checkpoints for each account, by index"
      },
      "nonces": {
        "details": "A record of states for signing / validating signatures"
      },
      "numCheckpoints": {
        "details": "The number of checkpoints for each account"
      }
    },
    "version": 1
  },
  "userdoc": {
    "kind": "user",
    "methods": {},
    "version": 1
  }
}