{
  "_format": "hh-sol-artifact-1",
  "contractName": "CrssToken",
  "sourceName": "contracts/CrssToken.sol",
  "abi": [
    {
      "inputs": [
        {
          "internalType": "address",
          "name": "_devTo",
          "type": "address"
        },
        {
          "internalType": "address",
          "name": "_buybackTo",
          "type": "address"
        },
        {
          "internalType": "contract IBEP20",
          "name": "_oldCrss",
          "type": "address"
        },
        {
          "internalType": "contract IBEP20",
          "name": "_oldCrss1",
          "type": "address"
        }
      ],
      "stateMutability": "nonpayable",
      "type": "constructor"
    },
    {
      "anonymous": false,
      "inputs": [
        {
          "indexed": true,
          "internalType": "address",
          "name": "owner",
          "type": "address"
        },
        {
          "indexed": true,
          "internalType": "address",
          "name": "spender",
          "type": "address"
        },
        {
          "indexed": false,
          "internalType": "uint256",
          "name": "value",
          "type": "uint256"
        }
      ],
      "name": "Approval",
      "type": "event"
    },
    {
      "anonymous": false,
      "inputs": [
        {
          "indexed": true,
          "internalType": "address",
          "name": "user",
          "type": "address"
        },
        {
          "indexed": false,
          "internalType": "uint256",
          "name": "balance",
          "type": "uint256"
        }
      ],
      "name": "ClaimV1Token",
      "type": "event"
    },
    {
      "anonymous": false,
      "inputs": [
        {
          "indexed": true,
          "internalType": "address",
          "name": "delegator",
          "type": "address"
        },
        {
          "indexed": true,
          "internalType": "address",
          "name": "fromDelegate",
          "type": "address"
        },
        {
          "indexed": true,
          "internalType": "address",
          "name": "toDelegate",
          "type": "address"
        }
      ],
      "name": "DelegateChanged",
      "type": "event"
    },
    {
      "anonymous": false,
      "inputs": [
        {
          "indexed": true,
          "internalType": "address",
          "name": "delegate",
          "type": "address"
        },
        {
          "indexed": false,
          "internalType": "uint256",
          "name": "previousBalance",
          "type": "uint256"
        },
        {
          "indexed": false,
          "internalType": "uint256",
          "name": "newBalance",
          "type": "uint256"
        }
      ],
      "name": "DelegateVotesChanged",
      "type": "event"
    },
    {
      "anonymous": false,
      "inputs": [
        {
          "indexed": true,
          "internalType": "address",
          "name": "router",
          "type": "address"
        }
      ],
      "name": "Init_router",
      "type": "event"
    },
    {
      "anonymous": false,
      "inputs": [
        {
          "indexed": false,
          "internalType": "uint256",
          "name": "minTokensBeforeSwap",
          "type": "uint256"
        }
      ],
      "name": "MinTokensBeforeSwapUpdated",
      "type": "event"
    },
    {
      "anonymous": false,
      "inputs": [
        {
          "indexed": true,
          "internalType": "address",
          "name": "to",
          "type": "address"
        },
        {
          "indexed": false,
          "internalType": "uint256",
          "name": "amount",
          "type": "uint256"
        }
      ],
      "name": "Mint",
      "type": "event"
    },
    {
      "anonymous": false,
      "inputs": [
        {
          "indexed": true,
          "internalType": "address",
          "name": "previousOwner",
          "type": "address"
        },
        {
          "indexed": true,
          "internalType": "address",
          "name": "newOwner",
          "type": "address"
        }
      ],
      "name": "OwnershipTransferred",
      "type": "event"
    },
    {
      "anonymous": false,
      "inputs": [
        {
          "indexed": true,
          "internalType": "address",
          "name": "account",
          "type": "address"
        },
        {
          "indexed": false,
          "internalType": "bool",
          "name": "excluded",
          "type": "bool"
        }
      ],
      "name": "SetExcludedFromAntiWhale",
      "type": "event"
    },
    {
      "anonymous": false,
      "inputs": [
        {
          "indexed": false,
          "internalType": "uint256",
          "name": "maxTransferAmountRate",
          "type": "uint256"
        }
      ],
      "name": "SetMaxTransferAmountRate",
      "type": "event"
    },
    {
      "anonymous": false,
      "inputs": [
        {
          "indexed": true,
          "internalType": "address",
          "name": "addr",
          "type": "address"
        },
        {
          "indexed": false,
          "internalType": "bool",
          "name": "status",
          "type": "bool"
        }
      ],
      "name": "SetWhiteList",
      "type": "event"
    },
    {
      "anonymous": false,
      "inputs": [
        {
          "indexed": false,
          "internalType": "uint256",
          "name": "tokensSwapped",
          "type": "uint256"
        },
        {
          "indexed": false,
          "internalType": "uint256",
          "name": "ethReceived",
          "type": "uint256"
        },
        {
          "indexed": false,
          "internalType": "uint256",
          "name": "tokensintoLiquidity",
          "type": "uint256"
        }
      ],
      "name": "SwapAndLiquify",
      "type": "event"
    },
    {
      "anonymous": false,
      "inputs": [
        {
          "indexed": false,
          "internalType": "bool",
          "name": "enabled",
          "type": "bool"
        }
      ],
      "name": "SwapAndLiquifyEnabledUpdated",
      "type": "event"
    },
    {
      "anonymous": false,
      "inputs": [
        {
          "indexed": true,
          "internalType": "address",
          "name": "from",
          "type": "address"
        },
        {
          "indexed": true,
          "internalType": "address",
          "name": "to",
          "type": "address"
        },
        {
          "indexed": false,
          "internalType": "uint256",
          "name": "value",
          "type": "uint256"
        }
      ],
      "name": "Transfer",
      "type": "event"
    },
    {
      "anonymous": false,
      "inputs": [
        {
          "indexed": true,
          "internalType": "address",
          "name": "from",
          "type": "address"
        },
        {
          "indexed": true,
          "internalType": "address",
          "name": "to",
          "type": "address"
        },
        {
          "indexed": false,
          "internalType": "uint256",
          "name": "total",
          "type": "uint256"
        }
      ],
      "name": "WhitelistedTransfer",
      "type": "event"
    },
    {
      "inputs": [],
      "name": "DELEGATION_TYPEHASH",
      "outputs": [
        {
          "internalType": "bytes32",
          "name": "",
          "type": "bytes32"
        }
      ],
      "stateMutability": "view",
      "type": "function"
    },
    {
      "inputs": [],
      "name": "DOMAIN_TYPEHASH",
      "outputs": [
        {
          "internalType": "bytes32",
          "name": "",
          "type": "bytes32"
        }
      ],
      "stateMutability": "view",
      "type": "function"
    },
    {
      "inputs": [
        {
          "internalType": "address",
          "name": "owner",
          "type": "address"
        },
        {
          "internalType": "address",
          "name": "spender",
          "type": "address"
        }
      ],
      "name": "allowance",
      "outputs": [
        {
          "internalType": "uint256",
          "name": "",
          "type": "uint256"
        }
      ],
      "stateMutability": "view",
      "type": "function"
    },
    {
      "inputs": [
        {
          "internalType": "address",
          "name": "spender",
          "type": "address"
        },
        {
          "internalType": "uint256",
          "name": "amount",
          "type": "uint256"
        }
      ],
      "name": "approve",
      "outputs": [
        {
          "internalType": "bool",
          "name": "",
          "type": "bool"
        }
      ],
      "stateMutability": "nonpayable",
      "type": "function"
    },
    {
      "inputs": [
        {
          "internalType": "address",
          "name": "account",
          "type": "address"
        }
      ],
      "name": "balanceOf",
      "outputs": [
        {
          "internalType": "uint256",
          "name": "",
          "type": "uint256"
        }
      ],
      "stateMutability": "view",
      "type": "function"
    },
    {
      "inputs": [],
      "name": "burnAddress",
      "outputs": [
        {
          "internalType": "address",
          "name": "",
          "type": "address"
        }
      ],
      "stateMutability": "view",
      "type": "function"
    },
    {
      "inputs": [],
      "name": "buybackFee",
      "outputs": [
        {
          "internalType": "uint256",
          "name": "",
          "type": "uint256"
        }
      ],
      "stateMutability": "view",
      "type": "function"
    },
    {
      "inputs": [],
      "name": "buybackTo",
      "outputs": [
        {
          "internalType": "address",
          "name": "",
          "type": "address"
        }
      ],
      "stateMutability": "view",
      "type": "function"
    },
    {
      "inputs": [
        {
          "internalType": "address",
          "name": "",
          "type": "address"
        },
        {
          "internalType": "uint32",
          "name": "",
          "type": "uint32"
        }
      ],
      "name": "checkpoints",
      "outputs": [
        {
          "internalType": "uint32",
          "name": "fromBlock",
          "type": "uint32"
        },
        {
          "internalType": "uint256",
          "name": "votes",
          "type": "uint256"
        }
      ],
      "stateMutability": "view",
      "type": "function"
    },
    {
      "inputs": [],
      "name": "claimV1Token",
      "outputs": [],
      "stateMutability": "nonpayable",
      "type": "function"
    },
    {
      "inputs": [],
      "name": "crosswiseRouter",
      "outputs": [
        {
          "internalType": "contract ICrosswiseRouter02",
          "name": "",
          "type": "address"
        }
      ],
      "stateMutability": "view",
      "type": "function"
    },
    {
      "inputs": [],
      "name": "crssBnbPair",
      "outputs": [
        {
          "internalType": "address",
          "name": "",
          "type": "address"
        }
      ],
      "stateMutability": "view",
      "type": "function"
    },
    {
      "inputs": [],
      "name": "decimals",
      "outputs": [
        {
          "internalType": "uint8",
          "name": "",
          "type": "uint8"
        }
      ],
      "stateMutability": "view",
      "type": "function"
    },
    {
      "inputs": [
        {
          "internalType": "address",
          "name": "spender",
          "type": "address"
        },
        {
          "internalType": "uint256",
          "name": "subtractedValue",
          "type": "uint256"
        }
      ],
      "name": "decreaseAllowance",
      "outputs": [
        {
          "internalType": "bool",
          "name": "",
          "type": "bool"
        }
      ],
      "stateMutability": "nonpayable",
      "type": "function"
    },
    {
      "inputs": [
        {
          "internalType": "address",
          "name": "delegatee",
          "type": "address"
        }
      ],
      "name": "delegate",
      "outputs": [],
      "stateMutability": "nonpayable",
      "type": "function"
    },
    {
      "inputs": [
        {
          "internalType": "address",
          "name": "delegatee",
          "type": "address"
        },
        {
          "internalType": "uint256",
          "name": "nonce",
          "type": "uint256"
        },
        {
          "internalType": "uint256",
          "name": "expiry",
          "type": "uint256"
        },
        {
          "internalType": "uint8",
          "name": "v",
          "type": "uint8"
        },
        {
          "internalType": "bytes32",
          "name": "r",
          "type": "bytes32"
        },
        {
          "internalType": "bytes32",
          "name": "s",
          "type": "bytes32"
        }
      ],
      "name": "delegateBySig",
      "outputs": [],
      "stateMutability": "nonpayable",
      "type": "function"
    },
    {
      "inputs": [
        {
          "internalType": "address",
          "name": "delegator",
          "type": "address"
        }
      ],
      "name": "delegates",
      "outputs": [
        {
          "internalType": "address",
          "name": "",
          "type": "address"
        }
      ],
      "stateMutability": "view",
      "type": "function"
    },
    {
      "inputs": [],
      "name": "devFee",
      "outputs": [
        {
          "internalType": "uint256",
          "name": "",
          "type": "uint256"
        }
      ],
      "stateMutability": "view",
      "type": "function"
    },
    {
      "inputs": [],
      "name": "devTo",
      "outputs": [
        {
          "internalType": "address",
          "name": "",
          "type": "address"
        }
      ],
      "stateMutability": "view",
      "type": "function"
    },
    {
      "inputs": [
        {
          "internalType": "address",
          "name": "account",
          "type": "address"
        }
      ],
      "name": "getCurrentVotes",
      "outputs": [
        {
          "internalType": "uint256",
          "name": "",
          "type": "uint256"
        }
      ],
      "stateMutability": "view",
      "type": "function"
    },
    {
      "inputs": [],
      "name": "getOwner",
      "outputs": [
        {
          "internalType": "address",
          "name": "",
          "type": "address"
        }
      ],
      "stateMutability": "view",
      "type": "function"
    },
    {
      "inputs": [
        {
          "internalType": "address",
          "name": "account",
          "type": "address"
        },
        {
          "internalType": "uint256",
          "name": "blockNumber",
          "type": "uint256"
        }
      ],
      "name": "getPriorVotes",
      "outputs": [
        {
          "internalType": "uint256",
          "name": "",
          "type": "uint256"
        }
      ],
      "stateMutability": "view",
      "type": "function"
    },
    {
      "inputs": [
        {
          "internalType": "address",
          "name": "spender",
          "type": "address"
        },
        {
          "internalType": "uint256",
          "name": "addedValue",
          "type": "uint256"
        }
      ],
      "name": "increaseAllowance",
      "outputs": [
        {
          "internalType": "bool",
          "name": "",
          "type": "bool"
        }
      ],
      "stateMutability": "nonpayable",
      "type": "function"
    },
    {
      "inputs": [
        {
          "internalType": "address",
          "name": "router",
          "type": "address"
        }
      ],
      "name": "init_router",
      "outputs": [],
      "stateMutability": "nonpayable",
      "type": "function"
    },
    {
      "inputs": [
        {
          "internalType": "address",
          "name": "_account",
          "type": "address"
        }
      ],
      "name": "isExcludedFromAntiWhale",
      "outputs": [
        {
          "internalType": "bool",
          "name": "",
          "type": "bool"
        }
      ],
      "stateMutability": "view",
      "type": "function"
    },
    {
      "inputs": [],
      "name": "liquidityFee",
      "outputs": [
        {
          "internalType": "uint256",
          "name": "",
          "type": "uint256"
        }
      ],
      "stateMutability": "view",
      "type": "function"
    },
    {
      "inputs": [],
      "name": "maxSupply",
      "outputs": [
        {
          "internalType": "uint256",
          "name": "",
          "type": "uint256"
        }
      ],
      "stateMutability": "view",
      "type": "function"
    },
    {
      "inputs": [],
      "name": "maxTransferAmount",
      "outputs": [
        {
          "internalType": "uint256",
          "name": "",
          "type": "uint256"
        }
      ],
      "stateMutability": "view",
      "type": "function"
    },
    {
      "inputs": [],
      "name": "maxTransferAmountRate",
      "outputs": [
        {
          "internalType": "uint256",
          "name": "",
          "type": "uint256"
        }
      ],
      "stateMutability": "view",
      "type": "function"
    },
    {
      "inputs": [
        {
          "internalType": "address",
          "name": "_to",
          "type": "address"
        },
        {
          "internalType": "uint256",
          "name": "_amount",
          "type": "uint256"
        }
      ],
      "name": "mint",
      "outputs": [],
      "stateMutability": "nonpayable",
      "type": "function"
    },
    {
      "inputs": [],
      "name": "name",
      "outputs": [
        {
          "internalType": "string",
          "name": "",
          "type": "string"
        }
      ],
      "stateMutability": "view",
      "type": "function"
    },
    {
      "inputs": [
        {
          "internalType": "address",
          "name": "",
          "type": "address"
        }
      ],
      "name": "nonces",
      "outputs": [
        {
          "internalType": "uint256",
          "name": "",
          "type": "uint256"
        }
      ],
      "stateMutability": "view",
      "type": "function"
    },
    {
      "inputs": [
        {
          "internalType": "address",
          "name": "",
          "type": "address"
        }
      ],
      "name": "numCheckpoints",
      "outputs": [
        {
          "internalType": "uint32",
          "name": "",
          "type": "uint32"
        }
      ],
      "stateMutability": "view",
      "type": "function"
    },
    {
      "inputs": [],
      "name": "oldCrss",
      "outputs": [
        {
          "internalType": "contract IBEP20",
          "name": "",
          "type": "address"
        }
      ],
      "stateMutability": "view",
      "type": "function"
    },
    {
      "inputs": [],
      "name": "oldCrss1",
      "outputs": [
        {
          "internalType": "contract IBEP20",
          "name": "",
          "type": "address"
        }
      ],
      "stateMutability": "view",
      "type": "function"
    },
    {
      "inputs": [],
      "name": "owner",
      "outputs": [
        {
          "internalType": "address",
          "name": "",
          "type": "address"
        }
      ],
      "stateMutability": "view",
      "type": "function"
    },
    {
      "inputs": [],
      "name": "renounceOwnership",
      "outputs": [],
      "stateMutability": "nonpayable",
      "type": "function"
    },
    {
      "inputs": [
        {
          "internalType": "address",
          "name": "_account",
          "type": "address"
        },
        {
          "internalType": "bool",
          "name": "_excluded",
          "type": "bool"
        }
      ],
      "name": "setExcludedFromAntiWhale",
      "outputs": [],
      "stateMutability": "nonpayable",
      "type": "function"
    },
    {
      "inputs": [
        {
          "internalType": "uint256",
          "name": "_maxTransferAmountRate",
          "type": "uint256"
        }
      ],
      "name": "setMaxTransferAmountRate",
      "outputs": [],
      "stateMutability": "nonpayable",
      "type": "function"
    },
    {
      "inputs": [
        {
          "internalType": "bool",
          "name": "_enabled",
          "type": "bool"
        }
      ],
      "name": "setSwapAndLiquifyEnabled",
      "outputs": [],
      "stateMutability": "nonpayable",
      "type": "function"
    },
    {
      "inputs": [
        {
          "internalType": "address",
          "name": "_addr",
          "type": "address"
        },
        {
          "internalType": "bool",
          "name": "_status",
          "type": "bool"
        }
      ],
      "name": "setWhiteList",
      "outputs": [],
      "stateMutability": "nonpayable",
      "type": "function"
    },
    {
      "inputs": [],
      "name": "swapAndLiquifyEnabled",
      "outputs": [
        {
          "internalType": "bool",
          "name": "",
          "type": "bool"
        }
      ],
      "stateMutability": "view",
      "type": "function"
    },
    {
      "inputs": [],
      "name": "symbol",
      "outputs": [
        {
          "internalType": "string",
          "name": "",
          "type": "string"
        }
      ],
      "stateMutability": "view",
      "type": "function"
    },
    {
      "inputs": [],
      "name": "totalSupply",
      "outputs": [
        {
          "internalType": "uint256",
          "name": "",
          "type": "uint256"
        }
      ],
      "stateMutability": "view",
      "type": "function"
    },
    {
      "inputs": [
        {
          "internalType": "address",
          "name": "recipient",
          "type": "address"
        },
        {
          "internalType": "uint256",
          "name": "amount",
          "type": "uint256"
        }
      ],
      "name": "transfer",
      "outputs": [
        {
          "internalType": "bool",
          "name": "",
          "type": "bool"
        }
      ],
      "stateMutability": "nonpayable",
      "type": "function"
    },
    {
      "inputs": [
        {
          "internalType": "address",
          "name": "sender",
          "type": "address"
        },
        {
          "internalType": "address",
          "name": "recipient",
          "type": "address"
        },
        {
          "internalType": "uint256",
          "name": "amount",
          "type": "uint256"
        }
      ],
      "name": "transferFrom",
      "outputs": [
        {
          "internalType": "bool",
          "name": "",
          "type": "bool"
        }
      ],
      "stateMutability": "nonpayable",
      "type": "function"
    },
    {
      "inputs": [
        {
          "internalType": "address",
          "name": "newOwner",
          "type": "address"
        }
      ],
      "name": "transferOwnership",
      "outputs": [],
      "stateMutability": "nonpayable",
      "type": "function"
    },
    {
      "stateMutability": "payable",
      "type": "receive"
    }
  ],
  "bytecode": "0x60806040526032600a55600c805460ff60a81b1916600160a81b1790553480156200002957600080fd5b5060405162003cb838038062003cb8833981810160405260808110156200004f57600080fd5b508051602082015160408301516060909301519192909160006200007262000327565b600080546001600160a01b0319166001600160a01b0383169081178255604051929350917f8be0079c531659141344cd1fd0a4f28419497f9722a3daafe3b4186f6b6457e0908290a3506001600160a01b03841662000118576040805162461bcd60e51b815260206004820152601e60248201527f43727373546f6b656e3a206465762061646472657373206973207a65726f0000604482015290519081900360640190fd5b6001600160a01b0383166200015f5760405162461bcd60e51b815260040180806020018281038252602281526020018062003c736022913960400191505060405180910390fd5b6001600160a01b038216620001a65760405162461bcd60e51b815260040180806020018281038252602381526020018062003c956023913960400191505060405180910390fd5b6001600160a01b038116620001ed5760405162461bcd60e51b815260040180806020018281038252602381526020018062003c956023913960400191505060405180910390fd5b6040805180820190915260148082527f43726f7373776973652056312e3120546f6b656e000000000000000000000000602090920191825262000233916004916200032b565b50604080518082019091526004808252634352535360e01b602090920191825262000261916005916200032b565b5060068054601260ff1991821617909155600b80546001600160a01b03199081166001600160a01b0397881617909155600c8054821695871695909517909455600f8054851693861693909317909255601080549093169316929092179055600460075560036008819055600955336000908152601160205260408082208054841660019081179091557f97847ee99463795296047093514439c3127772df3715e628aa85601cf8541716805485168217905530835291208054909216179055620003c7565b3390565b828054600181600116156101000203166002900490600052602060002090601f016020900481019282601f106200036e57805160ff19168380011785556200039e565b828001600101855582156200039e579182015b828111156200039e57825182559160200191906001019062000381565b50620003ac929150620003b0565b5090565b5b80821115620003ac5760008155600101620003b1565b61389c80620003d76000396000f3fe60806040526004361061028c5760003560e01c8063715018a61161015a578063b4b5ea57116100c1578063d5abeb011161007a578063d5abeb011461098a578063dd62ed3e1461099f578063e7a324dc146109da578063ef694457146109ef578063f1127ed814610a04578063f2fde38b14610a6357610293565b8063b4b5ea5714610872578063c2277fb8146108a5578063c3cda520146108ba578063c49b9a801461090e578063c7f59a671461093a578063cc1243721461097557610293565b80638da5cb5b116101135780638da5cb5b146107ac57806395d89b41146107c157806398118cb4146107d6578063a457c2d7146107eb578063a9059cbb14610824578063a9e757231461085d57610293565b8063715018a6146106c6578063782d6fe1146106db5780637ecebe0014610714578063893d20e8146107475780638a62dd8b1461075c5780638d14e1271461077157610293565b80633b2d081c116101fe5780635c19a95c116101b75780635c19a95c146105d55780636827e764146106085780636c55b23c1461061d5780636fcfff451461063257806370a082311461067e57806370d5ae05146106b157610293565b80633b2d081c146105155780633ff8bf2e1461052a57806340c10f191461053f5780634a74bb021461057857806350562fbb1461058d578063587cde1e146105a257610293565b806320606b701161025057806320606b70146103f557806323b872dd1461040a578063269f534c1461044d578063313ce567146104805780633908a8fb146104ab57806339509351146104dc57610293565b8063042fe81a1461029857806306fdde03146102c4578063095ea7b31461034e5780631702ba7c1461039b57806318160ddd146103ce57610293565b3661029357005b600080fd5b3480156102a457600080fd5b506102c2600480360360208110156102bb57600080fd5b5035610a96565b005b3480156102d057600080fd5b506102d9610b74565b6040805160208082528351818301528351919283929083019185019080838360005b838110156103135781810151838201526020016102fb565b50505050905090810190601f1680156103405780820380516001836020036101000a031916815260200191505b509250505060405180910390f35b34801561035a57600080fd5b506103876004803603604081101561037157600080fd5b506001600160a01b038135169060200135610c0a565b604080519115158252519081900360200190f35b3480156103a757600080fd5b506102c2600480360360208110156103be57600080fd5b50356001600160a01b0316610c28565b3480156103da57600080fd5b506103e3610e47565b60408051918252519081900360200190f35b34801561040157600080fd5b506103e3610e4d565b34801561041657600080fd5b506103876004803603606081101561042d57600080fd5b506001600160a01b03813581169160208101359091169060400135610e71565b34801561045957600080fd5b506103876004803603602081101561047057600080fd5b50356001600160a01b0316611334565b34801561048c57600080fd5b50610495611352565b6040805160ff9092168252519081900360200190f35b3480156104b757600080fd5b506104c061135b565b604080516001600160a01b039092168252519081900360200190f35b3480156104e857600080fd5b50610387600480360360408110156104ff57600080fd5b506001600160a01b03813516906020013561136a565b34801561052157600080fd5b506103e36113b8565b34801561053657600080fd5b506103e36113be565b34801561054b57600080fd5b506102c26004803603604081101561056257600080fd5b506001600160a01b0381351690602001356113c4565b34801561058457600080fd5b50610387611498565b34801561059957600080fd5b506102c26114a8565b3480156105ae57600080fd5b506104c0600480360360208110156105c557600080fd5b50356001600160a01b0316611836565b3480156105e157600080fd5b506102c2600480360360208110156105f857600080fd5b50356001600160a01b0316611854565b34801561061457600080fd5b506103e3611868565b34801561062957600080fd5b506104c061186e565b34801561063e57600080fd5b506106656004803603602081101561065557600080fd5b50356001600160a01b031661187d565b6040805163ffffffff9092168252519081900360200190f35b34801561068a57600080fd5b506103e3600480360360208110156106a157600080fd5b50356001600160a01b0316611895565b3480156106bd57600080fd5b506104c06118b0565b3480156106d257600080fd5b506102c26118b6565b3480156106e757600080fd5b506103e3600480360360408110156106fe57600080fd5b506001600160a01b038135169060200135611962565b34801561072057600080fd5b506103e36004803603602081101561073757600080fd5b50356001600160a01b0316611b6a565b34801561075357600080fd5b506104c0611b7c565b34801561076857600080fd5b506104c0611b8b565b34801561077d57600080fd5b506102c26004803603604081101561079457600080fd5b506001600160a01b0381351690602001351515611b9a565b3480156107b857600080fd5b506104c0611ca1565b3480156107cd57600080fd5b506102d9611cb0565b3480156107e257600080fd5b506103e3611d11565b3480156107f757600080fd5b506103876004803603604081101561080e57600080fd5b506001600160a01b038135169060200135611d17565b34801561083057600080fd5b506103876004803603604081101561084757600080fd5b506001600160a01b038135169060200135611d7f565b34801561086957600080fd5b506103e36122b5565b34801561087e57600080fd5b506103e36004803603602081101561089557600080fd5b50356001600160a01b03166122d1565b3480156108b157600080fd5b506104c0612335565b3480156108c657600080fd5b506102c2600480360360c08110156108dd57600080fd5b506001600160a01b038135169060208101359060408101359060ff6060820135169060808101359060a00135612344565b34801561091a57600080fd5b506102c26004803603602081101561093157600080fd5b503515156125b7565b34801561094657600080fd5b506102c26004803603604081101561095d57600080fd5b506001600160a01b038135169060200135151561266c565b34801561098157600080fd5b506104c061272e565b34801561099657600080fd5b506103e361273d565b3480156109ab57600080fd5b506103e3600480360360408110156109c257600080fd5b506001600160a01b038135811691602001351661274c565b3480156109e657600080fd5b506103e3612777565b3480156109fb57600080fd5b506104c061279b565b348015610a1057600080fd5b50610a4360048036036040811015610a2757600080fd5b5080356001600160a01b0316906020013563ffffffff166127aa565b6040805163ffffffff909316835260208301919091528051918290030190f35b348015610a6f57600080fd5b506102c260048036036020811015610a8657600080fd5b50356001600160a01b03166127d7565b610a9e6128d9565b6001600160a01b0316610aaf611ca1565b6001600160a01b031614610af8576040805162461bcd60e51b81526020600482018190526024820152600080516020613712833981519152604482015290519081900360640190fd5b612710811115610b395760405162461bcd60e51b815260040180806020018281038252605e81526020018061362d605e913960600191505060405180910390fd5b600a8190556040805182815290517f85bc7fedd13b581cdae3c9f8b61031058360d53bc40282744493b1f6940282819181900360200190a150565b60048054604080516020601f6002600019610100600188161502019095169490940493840181900481028201810190925282815260609390929091830182828015610c005780601f10610bd557610100808354040283529160200191610c00565b820191906000526020600020905b815481529060010190602001808311610be357829003601f168201915b5050505050905090565b6000610c1e610c176128d9565b84846128dd565b5060015b92915050565b610c306128d9565b6001600160a01b0316610c41611ca1565b6001600160a01b031614610c8a576040805162461bcd60e51b81526020600482018190526024820152600080516020613712833981519152604482015290519081900360640190fd5b6000819050806001600160a01b031663c45a01556040518163ffffffff1660e01b815260040160206040518083038186803b158015610cc857600080fd5b505afa158015610cdc573d6000803e3d6000fd5b505050506040513d6020811015610cf257600080fd5b5051604080516346eca80160e11b815290516001600160a01b039283169263c9c6539692309291861691638dd9500291600480820192602092909190829003018186803b158015610d4257600080fd5b505afa158015610d56573d6000803e3d6000fd5b505050506040513d6020811015610d6c57600080fd5b5051604080516001600160e01b031960e086901b1681526001600160a01b0393841660048201529290911660248301525160448083019260209291908290030181600087803b158015610dbe57600080fd5b505af1158015610dd2573d6000803e3d6000fd5b505050506040513d6020811015610de857600080fd5b5051600e80546001600160a01b03199081166001600160a01b0393841617909155600d8054909116838316179055604051908316907f69ce05eeb9ff652654ab8e40fcca2c100981e8755a32a7b12539371e1bb8670b90600090a25050565b60035490565b7f8cad95687ba82c2ce50e74f7b754645e5117c3a5bec8151c0726d5857980a86681565b60008383836000610e806122b5565b1115610f13576001600160a01b03831660009081526011602052604090205460ff16158015610ec857506001600160a01b03821660009081526011602052604090205460ff16155b15610f1357610ed56122b5565b811115610f135760405162461bcd60e51b815260040180806020018281038252603e8152602001806136b3603e913960400191505060405180910390fd5b6001600160a01b038716610f585760405162461bcd60e51b815260040180806020018281038252602381526020018061377c6023913960400191505060405180910390fd5b6001600160a01b038616610f9d5760405162461bcd60e51b815260040180806020018281038252602381526020018061377c6023913960400191505060405180910390fd5b6001600160a01b03861660009081526012602052604090205460ff1680610fdc57506001600160a01b03871660009081526012602052604090205460ff165b1561106e57610fec8787876129c9565b6001600160a01b0380881660009081526013602052604080822054898416835291205461101e92918216911687612b1b565b856001600160a01b0316876001600160a01b03167f6f14833cfdecbb9c32622fe48ec0af7fdd540090576d26e9dc6fc7e8383fc109876040518082815260200191505060405180910390a36112e1565b6000611099612710611093600954600754612710030389612c5d90919063ffffffff16565b90612cb6565b600c54909150600160a01b900460ff161580156110c45750600e546001600160a01b03898116911614155b80156110d95750600c54600160a81b900460ff165b1561115a5760006110fb6127106110936008548a612c5d90919063ffffffff16565b90506111078282612d1d565b91506111138782612d1d565b96506111208930836129c9565b6001600160a01b03808a166000908152601360205260408082205430835291205461115092918216911683612b1b565b611158612d7a565b505b600e546001600160a01b03888116911614156111b25761117b8888886129c9565b6001600160a01b03808916600090815260136020526040808220548a841683529120546111ad92918216911688612b1b565b6112df565b6111bd8888836129c9565b6001600160a01b03808916600090815260136020526040808220548a841683529120546111ef92918216911683612b1b565b600b5460075461121f918a916001600160a01b039091169061121a9061271090611093908c90612c5d565b6129c9565b6001600160a01b0380891660009081526013602052604080822054600b548416835291205460075461126c939283169291909116906112679061271090611093908c90612c5d565b612b1b565b600c54600954611297918a916001600160a01b039091169061121a9061271090611093908c90612c5d565b6001600160a01b0380891660009081526013602052604080822054600c54841683529120546009546112df939283169291909116906112679061271090611093908c90612c5d565b505b611327876112ed6128d9565b6113228860405180606001604052806028815260200161368b6028913961131b8d6113166128d9565b61274c565b9190612e4b565b6128dd565b5060019695505050505050565b6001600160a01b031660009081526011602052604090205460ff1690565b60065460ff1690565b600d546001600160a01b031681565b6000610c1e6113776128d9565b8461132285600260006113886128d9565b6001600160a01b03908116825260208083019390935260409182016000908120918c168152925290205490612ee2565b60095481565b600a5481565b6113cc6128d9565b6001600160a01b03166113dd611ca1565b6001600160a01b031614611426576040805162461bcd60e51b81526020600482018190526024820152600080516020613712833981519152604482015290519081900360640190fd5b6114308282612f3c565b6001600160a01b03808316600090815260136020526040812054611455921683612b1b565b6040805182815290516001600160a01b038416917f0f6798a560793a54c3bcfe86a93cde1e73087d944c0ea20544137d4121396885919081900360200190a25050565b600c54600160a81b900460ff1681565b600f546000906001600160a01b03166370a082316114c46128d9565b6040518263ffffffff1660e01b815260040180826001600160a01b0316815260200191505060206040518083038186803b15801561150157600080fd5b505afa158015611515573d6000803e3d6000fd5b505050506040513d602081101561152b57600080fd5b50516010549091506000906001600160a01b03166370a0823161154c6128d9565b6040518263ffffffff1660e01b815260040180826001600160a01b0316815260200191505060206040518083038186803b15801561158957600080fd5b505afa15801561159d573d6000803e3d6000fd5b505050506040513d60208110156115b357600080fd5b5051905060006115c38383612ee2565b600f549091506000906001600160a01b03166323b872dd6115e26128d9565b61dead876040518463ffffffff1660e01b815260040180846001600160a01b03168152602001836001600160a01b031681526020018281526020019350505050602060405180830381600087803b15801561163c57600080fd5b505af1158015611650573d6000803e3d6000fd5b505050506040513d602081101561166657600080fd5b50519050806116b4576040805162461bcd60e51b8152602060048201526015602482015274151c985cdb99995c881d1bdad95b8811985a5b1959605a1b604482015290519081900360640190fd5b6010546000906001600160a01b03166323b872dd6116d06128d9565b61dead876040518463ffffffff1660e01b815260040180846001600160a01b03168152602001836001600160a01b031681526020018281526020019350505050602060405180830381600087803b15801561172a57600080fd5b505af115801561173e573d6000803e3d6000fd5b505050506040513d602081101561175457600080fd5b50519050806117a2576040805162461bcd60e51b8152602060048201526015602482015274151c985cdb99995c881d1bdad95b8811985a5b1959605a1b604482015290519081900360640190fd5b6117b36117ad6128d9565b84612f3c565b6117e76000601360006117c46128d9565b6001600160a01b0390811682526020820192909252604001600020541685612b1b565b6117ef6128d9565b6001600160a01b03167fb3c49d9fc0db5651158a89364cf26323e592ad4eb09191882406435064c789af846040518082815260200191505060405180910390a25050505050565b6001600160a01b039081166000908152601360205260409020541690565b61186561185f6128d9565b82613055565b50565b60075481565b600c546001600160a01b031681565b60156020526000908152604090205463ffffffff1681565b6001600160a01b031660009081526001602052604090205490565b61dead81565b6118be6128d9565b6001600160a01b03166118cf611ca1565b6001600160a01b031614611918576040805162461bcd60e51b81526020600482018190526024820152600080516020613712833981519152604482015290519081900360640190fd5b600080546040516001600160a01b03909116907f8be0079c531659141344cd1fd0a4f28419497f9722a3daafe3b4186f6b6457e0908390a3600080546001600160a01b0319169055565b60004382106119a25760405162461bcd60e51b81526004018080602001828103825260278152602001806137c46027913960400191505060405180910390fd5b6001600160a01b03831660009081526015602052604090205463ffffffff16806119d0576000915050610c22565b6001600160a01b038416600090815260146020908152604080832063ffffffff600019860181168552925290912054168310611a3f576001600160a01b03841660009081526014602090815260408083206000199490940163ffffffff16835292905220600101549050610c22565b6001600160a01b038416600090815260146020908152604080832083805290915290205463ffffffff16831015611a7a576000915050610c22565b600060001982015b8163ffffffff168163ffffffff161115611b3357600282820363ffffffff16048103611aac61355e565b506001600160a01b038716600090815260146020908152604080832063ffffffff808616855290835292819020815180830190925280549093168082526001909301549181019190915290871415611b0e57602001519450610c229350505050565b805163ffffffff16871115611b2557819350611b2c565b6001820392505b5050611a82565b506001600160a01b038516600090815260146020908152604080832063ffffffff9094168352929052206001015491505092915050565b60166020526000908152604090205481565b6000611b86611ca1565b905090565b600f546001600160a01b031681565b611ba26128d9565b6001600160a01b0316611bb3611ca1565b6001600160a01b031614611bfc576040805162461bcd60e51b81526020600482018190526024820152600080516020613712833981519152604482015290519081900360640190fd5b6001600160a01b038216611c415760405162461bcd60e51b81526004018080602001828103825260248152602001806137586024913960400191505060405180910390fd5b6001600160a01b038216600081815260126020908152604091829020805460ff1916851515908117909155825190815291517ffd813a33bba8e3b5e540229e266ccd9c045fd61bcb50873786f1bede0ddad3679281900390910190a25050565b6000546001600160a01b031690565b60058054604080516020601f6002600019610100600188161502019095169490940493840181900481028201810190925282815260609390929091830182828015610c005780601f10610bd557610100808354040283529160200191610c00565b60085481565b6000610c1e611d246128d9565b846113228560405180606001604052806025815260200161379f6025913960026000611d4e6128d9565b6001600160a01b03908116825260208083019390935260409182016000908120918d16815292529020549190612e4b565b6000611d896128d9565b83836000611d956122b5565b1115611e28576001600160a01b03831660009081526011602052604090205460ff16158015611ddd57506001600160a01b03821660009081526011602052604090205460ff16155b15611e2857611dea6122b5565b811115611e285760405162461bcd60e51b815260040180806020018281038252603e8152602001806136b3603e913960400191505060405180910390fd5b6001600160a01b038616611e6d5760405162461bcd60e51b815260040180806020018281038252602381526020018061377c6023913960400191505060405180910390fd5b84611e7e611e796128d9565b611895565b1015611ebb5760405162461bcd60e51b81526004018080602001828103825260268152602001806137326026913960400191505060405180910390fd5b6001600160a01b03861660009081526012602052604090205460ff1680611f07575060126000611ee96128d9565b6001600160a01b0316815260208101919091526040016000205460ff165b15611fbf57611f1e611f176128d9565b87876129c9565b611f6860136000611f2d6128d9565b6001600160a01b03908116825260208083019390935260409182016000908120548b8316825260139094529190912054918116911687612b1b565b856001600160a01b0316611f7a6128d9565b6001600160a01b03167f6f14833cfdecbb9c32622fe48ec0af7fdd540090576d26e9dc6fc7e8383fc109876040518082815260200191505060405180910390a36122a9565b6000611fdc61271061109360075489612c5d90919063ffffffff16565b90506000611ffb6127106110936009548a612c5d90919063ffffffff16565b905060006120138261200d8a86612d1d565b90612d1d565b600c54909150600160a01b900460ff1615801561204b5750600e546001600160a01b031661203f6128d9565b6001600160a01b031614155b80156120605750600c54600160a81b900460ff165b156121005760006120826127106110936008548c612c5d90919063ffffffff16565b905061208e8282612d1d565b915061209a8982612d1d565b98506120ae6120a76128d9565b30836129c9565b6120f6601360006120bd6128d9565b6001600160a01b039081168252602080830193909352604091820160009081205430825260139094529190912054918116911683612b1b565b6120fe612d7a565b505b600e546001600160a01b038a811691161415612177576121286121216128d9565b8a8a6129c9565b612172601360006121376128d9565b6001600160a01b03908116825260208083019390935260409182016000908120548e831682526013909452919091205491811691168a612b1b565b6122a5565b6121896121826128d9565b8a836129c9565b6121d3601360006121986128d9565b6001600160a01b03908116825260208083019390935260409182016000908120548e8316825260139094529190912054918116911683612b1b565b6121f06121de6128d9565b600b546001600160a01b0316856129c9565b61223c601360006121ff6128d9565b6001600160a01b0390811682526020808301939093526040918201600090812054600b548316825260139094529190912054918116911685612b1b565b6122596122476128d9565b600c546001600160a01b0316846129c9565b6122a5601360006122686128d9565b6001600160a01b0390811682526020808301939093526040918201600090812054600c548316825260139094529190912054918116911684612b1b565b5050505b50600195945050505050565b6000611b86612710611093600a546122cb610e47565b90612c5d565b6001600160a01b03811660009081526015602052604081205463ffffffff16806122fc57600061232e565b6001600160a01b038316600090815260146020908152604080832063ffffffff60001986011684529091529020600101545b9392505050565b600e546001600160a01b031681565b60007f8cad95687ba82c2ce50e74f7b754645e5117c3a5bec8151c0726d5857980a86661236f610b74565b8051906020012061237e6130ea565b60408051602080820195909552808201939093526060830191909152306080808401919091528151808403909101815260a0830182528051908401207fe48329057bfd03d55e49b547132e39cffd9c1820ad7b9d4c5307691425d15adf60c08401526001600160a01b038b1660e084015261010083018a90526101208084018a9052825180850390910181526101408401835280519085012061190160f01b6101608501526101628401829052610182808501829052835180860390910181526101a285018085528151918701919091206000918290526101c2860180865281905260ff8b166101e287015261020286018a90526102228601899052935192965090949293909260019261024280840193601f198301929081900390910190855afa1580156124b1573d6000803e3d6000fd5b5050604051601f1901519150506001600160a01b0381166125035760405162461bcd60e51b81526004018080602001828103825260268152602001806137eb6026913960400191505060405180910390fd5b6001600160a01b038116600090815260166020526040902080546001810190915589146125615760405162461bcd60e51b81526004018080602001828103825260228152602001806135766022913960400191505060405180910390fd5b874211156125a05760405162461bcd60e51b81526004018080602001828103825260268152602001806136076026913960400191505060405180910390fd5b6125aa818b613055565b505050505b505050505050565b6125bf6128d9565b6001600160a01b03166125d0611ca1565b6001600160a01b031614612619576040805162461bcd60e51b81526020600482018190526024820152600080516020613712833981519152604482015290519081900360640190fd5b600c8054821515600160a81b810260ff60a81b199092169190911790915560408051918252517f53726dfcaf90650aa7eb35524f4d3220f07413c8d6cb404cc8c18bf5591bc1599181900360200190a150565b6126746128d9565b6001600160a01b0316612685611ca1565b6001600160a01b0316146126ce576040805162461bcd60e51b81526020600482018190526024820152600080516020613712833981519152604482015290519081900360640190fd5b6001600160a01b038216600081815260116020908152604091829020805460ff1916851515908117909155825190815291517f54568f1b3fbd14c43e0c6cd043a0efbb2c931e2acead9fd87a94116dd58ffcad9281900390910190a25050565b600b546001600160a01b031681565b6a295be96e6406697200000081565b6001600160a01b03918216600090815260026020908152604080832093909416825291909152205490565b7fe48329057bfd03d55e49b547132e39cffd9c1820ad7b9d4c5307691425d15adf81565b6010546001600160a01b031681565b60146020908152600092835260408084209091529082529020805460019091015463ffffffff9091169082565b6127df6128d9565b6001600160a01b03166127f0611ca1565b6001600160a01b031614612839576040805162461bcd60e51b81526020600482018190526024820152600080516020613712833981519152604482015290519081900360640190fd5b6001600160a01b03811661287e5760405162461bcd60e51b81526004018080602001828103825260268152602001806135e16026913960400191505060405180910390fd5b600080546040516001600160a01b03808516939216917f8be0079c531659141344cd1fd0a4f28419497f9722a3daafe3b4186f6b6457e091a3600080546001600160a01b0319166001600160a01b0392909216919091179055565b3390565b6001600160a01b0383166129225760405162461bcd60e51b81526004018080602001828103825260248152602001806135bd6024913960400191505060405180910390fd5b6001600160a01b0382166129675760405162461bcd60e51b81526004018080602001828103825260228152602001806138456022913960400191505060405180910390fd5b6001600160a01b03808416600081815260026020908152604080832094871680845294825291829020859055815185815291517f8c5be1e5ebec7d5bd14f71427d1e84f3dd0314c0f7b2291e5b200ac8c7c3b9259281900390910190a3505050565b6001600160a01b038316612a0e5760405162461bcd60e51b81526004018080602001828103825260258152602001806135986025913960400191505060405180910390fd5b6001600160a01b038216612a535760405162461bcd60e51b815260040180806020018281038252602381526020018061377c6023913960400191505060405180910390fd5b612a9081604051806060016040528060268152602001613732602691396001600160a01b0386166000908152600160205260409020549190612e4b565b6001600160a01b038085166000908152600160205260408082209390935590841681522054612abf9082612ee2565b6001600160a01b0380841660008181526001602090815260409182902094909455805185815290519193928716927fddf252ad1be2c89b69c2b068fc378daa952ba7f163c4a11628f55a4df523b3ef92918290030190a3505050565b816001600160a01b0316836001600160a01b031614158015612b3d5750600081115b15612c58576001600160a01b03831615612bcf576001600160a01b03831660009081526015602052604081205463ffffffff169081612b7d576000612baf565b6001600160a01b038516600090815260146020908152604080832063ffffffff60001987011684529091529020600101545b90506000612bbd8285612d1d565b9050612bcb868484846130ee565b5050505b6001600160a01b03821615612c58576001600160a01b03821660009081526015602052604081205463ffffffff169081612c0a576000612c3c565b6001600160a01b038416600090815260146020908152604080832063ffffffff60001987011684529091529020600101545b90506000612c4a8285612ee2565b90506125af858484846130ee565b505050565b600082612c6c57506000610c22565b82820282848281612c7957fe5b041461232e5760405162461bcd60e51b81526004018080602001828103825260218152602001806136f16021913960400191505060405180910390fd5b6000808211612d0c576040805162461bcd60e51b815260206004820152601a60248201527f536166654d6174683a206469766973696f6e206279207a65726f000000000000604482015290519081900360640190fd5b818381612d1557fe5b049392505050565b600082821115612d74576040805162461bcd60e51b815260206004820152601e60248201527f536166654d6174683a207375627472616374696f6e206f766572666c6f770000604482015290519081900360640190fd5b50900390565b600c805460ff60a01b1916600160a01b1790556000612d9830611895565b90506000612da46122b5565b9050808211612db35781612db5565b805b91506000612dc4836002612cb6565b90506000612dd28483612d1d565b905047612dde83613253565b6000612dea4783612d1d565b9050612df683826133f9565b604080518581526020810183905280820185905290517f17bbfb9a6069321b6ded73bd96327c9e6b7212a5cd51ff219cd61370acafb5619181900360600190a15050600c805460ff60a01b1916905550505050565b60008184841115612eda5760405162461bcd60e51b81526004018080602001828103825283818151815260200191508051906020019080838360005b83811015612e9f578181015183820152602001612e87565b50505050905090810190601f168015612ecc5780820380516001836020036101000a031916815260200191505b509250505060405180910390fd5b505050900390565b60008282018381101561232e576040805162461bcd60e51b815260206004820152601b60248201527f536166654d6174683a206164646974696f6e206f766572666c6f770000000000604482015290519081900360640190fd5b6001600160a01b038216612f97576040805162461bcd60e51b815260206004820152601f60248201527f42455032303a206d696e7420746f20746865207a65726f206164647265737300604482015290519081900360640190fd5b6a295be96e6406697200000081600354011115612fca57600354612fc7906a295be96e6406697200000090612d1d565b90505b600354612fd79082612ee2565b6003556001600160a01b038216600090815260016020526040902054612ffd9082612ee2565b6001600160a01b03831660008181526001602090815260408083209490945583518581529351929391927fddf252ad1be2c89b69c2b068fc378daa952ba7f163c4a11628f55a4df523b3ef9281900390910190a35050565b6001600160a01b038083166000908152601360205260408120549091169061307c84611895565b6001600160a01b0385811660008181526013602052604080822080546001600160a01b031916898616908117909155905194955093928616927f3134e8a2e6d97e929a7e54011ea5485d7d196dd5f0ba4d4ef95803e8e3fc257f9190a46130e4828483612b1b565b50505050565b4690565b60006131124360405180606001604052806034815260200161381160349139613500565b905060008463ffffffff1611801561315b57506001600160a01b038516600090815260146020908152604080832063ffffffff6000198901811685529252909120548282169116145b15613198576001600160a01b038516600090815260146020908152604080832063ffffffff60001989011684529091529020600101829055613209565b60408051808201825263ffffffff808416825260208083018681526001600160a01b038a166000818152601484528681208b8616825284528681209551865490861663ffffffff19918216178755925160019687015590815260159092529390208054928801909116919092161790555b604080518481526020810184905281516001600160a01b038816927fdec2bacdd2f05b59de34da9b523dff8be42e5e38e818c82fdb0bae774387a724928290030190a25050505050565b6040805160028082526060808301845292602083019080368337019050509050308160008151811061328157fe5b6001600160a01b03928316602091820292909201810191909152600d54604080516346eca80160e11b815290519190931692638dd95002926004808301939192829003018186803b1580156132d557600080fd5b505afa1580156132e9573d6000803e3d6000fd5b505050506040513d60208110156132ff57600080fd5b505181518290600190811061331057fe5b6001600160a01b039283166020918202929092010152600d5461333691309116846128dd565b600d5460405163791ac94760e01b8152600481018481526000602483018190523060648401819052426084850181905260a060448601908152875160a487015287516001600160a01b039097169663791ac947968a968a9594939092909160c40190602080880191028083838b5b838110156133bc5781810151838201526020016133a4565b505050509050019650505050505050600060405180830381600087803b1580156133e557600080fd5b505af11580156125af573d6000803e3d6000fd5b600d546134119030906001600160a01b0316846128dd565b600d546040805163f305d71960e01b81523060048201819052602482018690526000604483018190526064830181905260848301919091524260a4830152915191926001600160a01b03169163f305d71991859160c480830192606092919082900301818588803b15801561348557600080fd5b505af1158015613499573d6000803e3d6000fd5b50505050506040513d60608110156134b057600080fd5b5060400151905080612c58576040805162461bcd60e51b8152602060048201526014602482015273105919081b1a5c5d5a591a5d1e4819985a5b195960621b604482015290519081900360640190fd5b60008164010000000084106135565760405162461bcd60e51b8152602060048201818152835160248401528351909283926044909101919085019080838360008315612e9f578181015183820152602001612e87565b509192915050565b60408051808201909152600080825260208201529056fe435253533a3a64656c656761746542795369673a20696e76616c6964206e6f6e636542455032303a207472616e736665722066726f6d20746865207a65726f206164647265737342455032303a20617070726f76652066726f6d20746865207a65726f20616464726573734f776e61626c653a206e6577206f776e657220697320746865207a65726f2061646472657373435253533a3a64656c656761746542795369673a207369676e6174757265206578706972656443727373546f6b656e2e7365744d61785472616e73666572416d6f756e74526174653a204d6178207472616e7366657220616d6f756e742072617465206d757374206e6f742065786365656420746865206d6178696d756d20726174652e42455032303a207472616e7366657220616d6f756e74206578636565647320616c6c6f77616e6365435253533a3a616e74695768616c653a205472616e7366657220616d6f756e74206578636565647320746865206d61785472616e73666572416d6f756e74536166654d6174683a206d756c7469706c69636174696f6e206f766572666c6f774f776e61626c653a2063616c6c6572206973206e6f7420746865206f776e657242455032303a207472616e7366657220616d6f756e7420657863656564732062616c616e636543727373546f6b656e2e73657457686974654c6973743a205a65726f204164647265737342455032303a207472616e7366657220746f20746865207a65726f206164647265737342455032303a2064656372656173656420616c6c6f77616e63652062656c6f77207a65726f435253533a3a6765745072696f72566f7465733a206e6f74207965742064657465726d696e6564435253533a3a64656c656761746542795369673a20696e76616c6964207369676e6174757265435253533a3a5f7772697465436865636b706f696e743a20626c6f636b206e756d6265722065786365656473203332206269747342455032303a20617070726f766520746f20746865207a65726f2061646472657373a264697066735822122082d44773c886a01edac8cd6340166d6d43491ccdc08ea1210b0aa7bff4bf3b2164736f6c634300060c003343727373546f6b656e3a206275796261636b2061646472657373206973207a65726f43727373546f6b656e3a206f6c6420637273732061646472657373206973207a65726f",
  "linkReferences": {},
  "deployedLinkReferences": {}
}